:1000000003C1000031C100002FC100002DC100005C
:100010002BC1000029C1000027C1000025C100003C
:1000200023C1000021C100001FC100001DC100004C
:100030001BC1000019C1000017C1000015C100005C
:1000400013C1000011C100000FC100000DC100006C
:100050000BC1000009C1000007C100007BC6000001
:1000600003C1000001C10000FFC00000FDC000008E
:10007000FBC00000F9C00000F7C00000F5C00000A0
:10008000F3C00000F1C00000EFC00000EDC00000B0
:100090002BC6000000C60000E7C00000A5C6000097
:1000A000E3C00000E1C00000DFC00000DDC00000D0
:1000B000DBC00000D9C00000D7C00000D5C00000E0
:1000C000D3C00000D1C00000CFC00000CDC00000F0
:1000D000CBC00000C9C00000C7C00000C5C0000000
:1000E000C3C00000000020002300260029002C00CF
:1000F0002F00320000010000030106010901000089
:100100000A0B02090C0D0E08070304010000000091
:1001100000000000000000000000000000000000DF
:10012000000000000000000000001211100000009C
:1001300000000000000000000000000000000000BF
:100140000000000000002200250028002B002E00E7
:100150003100340002010000050108010B0100001C
:100160002100240027002A002D0030003300010167
:100170000000040107010A01050505050705080837
:100180000808020202020A0A080804040404010121
:100190000101010101010303030303030303040736
:1001A00007070C0C0C0C0C0C0C0C020202020606CD
:1001B0000606060606060B0B0B0B0B0B0B0B0102C0
:1001C0001020200808102040102040800201020169
:1001D0000804020101020408102040808040201021
:1001E000080402018004020180402010080402017A
:1001F00008040201010204081020408001020408E2
:10020000102040805F08C10C11241FBECFEFD1E247
:10021000DEBFCDBF00E00CBF24E0A0ECB2E001C027
:100220001D92A636B207E1F712E0A0E0B2E0E6E6E2
:10023000F2E200E00BBF02C007900D92A03CB107B4
:10024000D9F711E0C3E0D1E000E006C02197010931
:10025000802FFE010E94090FC230D10780E00807FD
:10026000A9F77ED70C942211CBCE90E0FC01E2548A
:10027000FE4F249188589E4FFC018491882399F069
:1002800090E0880F991FFC01E25AFE4FA591B491AE
:10029000FC01EC5BFE4F859194918FB7F894EC9143
:1002A000E22BEC938FBF089508950895AF92BF920B
:1002B000CF92DF92EF92FF920F931F93CF93DF9332
:1002C0006C017B018B01040F151FEB015E01AE1861
:1002D000BF08C017D10759F06991D601ED91FC9183
:1002E0000190F081E02DC6011995892B79F7C501A0
:1002F000DF91CF911F910F91FF90EF90DF90CF9002
:10030000BF90AF900895FC01538D448D252F30E0B0
:10031000842F90E0821B930B541710F0CF96089512
:1003200001970895FC01918D828D981761F0A28D3F
:10033000AE0FBF2FB11D5D968C91928D9F5F9F7305
:10034000928F90E008958FEF9FEF0895FC01918DBB
:10035000828D981731F0828DE80FF11D858D90E028
:1003600008958FEF9FEF0895FC01918D228D892FC5
:1003700090E0805C9F4F821B91098F7399270895AD
:1003800081EA93E0F1DF21E0892B09F420E0822F5C
:100390000895FC01A48DA80FB92FB11DA35ABF4F1A
:1003A0002C91848D90E001968F739927848FA68974
:1003B000B7892C93A089B1898C91837080648C93C8
:1003C000938D848D981306C00288F389E02D808177
:1003D0008F7D80830895EF92FF920F931F93CF93A9
:1003E000DF93EC0181E0888F9B8D8C8D98131AC070
:1003F000E889F989808185FF15C09FB7F894EE8957
:10040000FF896083E889F9898081837080648083B3
:100410009FBF81E090E0DF91CF911F910F91FF90FE
:10042000EF900895F62E0B8D10E00F5F1F4F0F73A6
:100430001127E02E8C8D8E110BC00FB607FCFACF62
:10044000E889F989808185FFF5CFCE01A2DFF2CF5F
:10045000EB8DEC0FFD2FF11DE35AFF4FF0829FB79C
:10046000F8940B8FEA89FB8980818062D0CFCF938B
:10047000DF93EC01888D8823B1F0AA89BB89E889D4
:10048000F9898C9185FD03C0808186FD0CC00FB673
:1004900007FCF7CF8C9185FFF2CF808185FFEDCFF0
:1004A000CE0177DFEACFDF91CF91089580E090E031
:1004B000892B49F080E090E0892B29F00E94000010
:1004C00081110E94000080E090E0892B21F058DF2C
:1004D00081110E94000080E090E0892B49F080E0CB
:1004E00090E0892B29F00E94000081110E940000F9
:1004F00080E090E0892B49F080E090E0892B29F0A2
:100500000E94000081110C940000089581508231F6
:1005100008F05AC0E82FF0E08827EE56FD4F8F4FC5
:100520000C94090FB202B602A402AA02AE02E402BF
:10053000B902BF02C302C902CD02D102D702DB0257
:10054000E402DF02E502E902809180008F77809368
:1005500080000895809180008F7DF9CF8091800088
:10056000877FF5CF84B58F7784BD089584B58F7D5F
:10057000FBCF8091B0008F778093B0000895809179
:10058000B0008F7DF9CF809190008F77809390009D
:100590000895809190008F7DF9CF80919000877FA2
:1005A000F5CF8091A0008F778093A000089580916F
:1005B000A0008F7DF9CF8091A000877FF5CF80913B
:1005C00020018F77809320010895809120018F7DF5
:1005D000F9CF80912001877FF5CF1F93CF93DF93D1
:1005E000282F30E0F901E250FF4F8491F901E254E5
:1005F000FE4FD491F901E858FE4FC491CC23A1F0ED
:10060000162F811183DFEC2FF0E0EE0FFF1FEC5B64
:10061000FE4FA591B4918FB7F894EC91111108C0D9
:10062000D095DE23DC938FBFDF91CF911F9108958A
:10063000DE2BF8CF90917B00977F90937B008653C1
:10064000806480937C0080917A00806480937A003B
:1006500080917A0086FDFCCF80917800909179009E
:1006600008953FB7F89480916E0390916F03A09125
:100670007003B091710326B5A89B05C02F3F19F0F8
:100680000196A11DB11D3FBFBA2FA92F982F882712
:10069000BC01CD01620F711D811D911D42E0660FED
:1006A000771F881F991F4A95D1F708958F929F92BF
:1006B000AF92BF92CF92DF92EF92FF926B017C01DB
:1006C000D0DF4B015C01C114D104E104F104B1F0AD
:1006D000C8DF681979098A099B09683E734081055A
:1006E000910588F321E0C21AD108E108F10888EEEB
:1006F000880E83E0981EA11CB11CE5CFFF90EF90FF
:10070000DF90CF90BF90AF909F908F90089585ED30
:100710008093BC008091BC0084FDFCCF10927803D4
:10072000089520912203260F3327331F21323105EC
:10073000ECF420917803FC0190E080E0243069F033
:1007400082E00895A09122032191AC014E5F5C4F9D
:10075000A40FB52FB11D2C930196861798F38091A5
:100760002203680F6093220380E0089581E00895DA
:100770000895E0917C0380917B03E81730F4F0E06A
:10078000EE51FD4F808190E008958FEF9FEF089527
:1007900090917C0380917B032FEF3FEF981748F4F3
:1007A000E92FF0E0EE51FD4F208130E09F5F909304
:1007B0007C03C901089580917B0390917C03891B80
:1007C000990B0895CF92DF92EF92FF920F931F93B0
:1007D000CF93DF937C01CB018A012091E102222398
:1007E00089F0EB016B01C40ED51ECC15DD0561F05F
:1007F0006991D701ED91FC910190F081E02DC70145
:100800001995F3CF642F8DDFC801DF91CF911F9130
:100810000F91FF90EF90DF90CF900895CF93DF93EB
:100820001F92CDB7DEB769832091E1022223F9F050
:1008300020917903203258F021E030E0FC0133832D
:10084000228390E080E00F90DF91CF910895809116
:100850007A03E82FF0E0EF53FD4F998190838F5F8B
:1008600080937A038093790381E090E0ECCF61E09C
:10087000CE01019656DFF8CFCF93FC01C48121E071
:100880002093E102C093C00210927A031092790380
:100890008385682B8EE394E0C1DF909179039132D8
:1008A00008F03FC0809178038111FCCF82E08093F3
:1008B000780381E0809377038FEF80934503109254
:1008C000670390936603A1ECB2E0E6E4F3E080E016
:1008D00098132FC01092680380916803CC0FC82B27
:1008E000C093680380917603813039F510927603C6
:1008F000809168038093BB008091BC0083FDF8CF9A
:1009000085EC8093BC00809178038230E1F3809184
:1009100045038F3F31F080914503803211F0809183
:10092000450310927A03109279031092E102CF915D
:1009300008952D9121938F5FCBCF85EEE2CF08955F
:1009400090E080E008950F931F93CF938C01C62F02
:1009500093DF6C2F6460C8018FDF6C2F6B7FC80141
:100960008BDF83EC90E00197F1F7CF911F910F910E
:1009700008950F931F93CF93DF938C01D62FC42F2D
:10098000607F642BE0DF80E1D89FB00111246C2BE5
:10099000C801DF91CF911F910F91D5CF40E061E069
:1009A00086E594E0E6DF8BE39FE10197F1F7089598
:1009B000CF93DF9300D000D01F921F92CDB7DEB748
:1009C00098E0E6E1F2E0DE01119601900D929A9531
:1009D000E1F790915E04961710F46FEF690F262FE0
:1009E00030E0220F331F41E050E04C0F5D1F240F19
:1009F000351FF9016081680F606840E086E594E08A
:100A000028960FB6F894DEBF0FBECDBFDF91CF9111
:100A1000B0CF41E0AEDF81E090E00895FB010190AE
:100A20000020E9F73197AF01461B570BDC01ED9130
:100A3000FC910280F381E02D19948F929F92AF92E6
:100A4000BF92EF92FF920F931F93CF93DF93CDB797
:100A5000DEB7A1970FB6F894DEBF0FBECDBF7C0105
:100A6000FA01CB0119A2223008F42AE08E010F5DB1
:100A70001F4F822E912CB12CA12CBF01A5019401F6
:100A80000E94E70EF901CA016A3004F5605DD801E1
:100A90006E938D01232B242B252B79F790E080E09A
:100AA000109719F0BD01C701B9DFA1960FB6F894F0
:100AB000DEBF0FBECDBFDF91CF911F910F91FF9091
:100AC000EF90BF90AF909F908F900895695CDFCFBB
:100AD0002F923F924F925F926F927F928F929F924E
:100AE000AF92BF92CF92DF92EF92FF921F93CF937C
:100AF000DF93EC016A017B01722EAB019601CB0101
:100B0000B6010E94E30E6EE572E0811125C0460138
:100B10005701E894B7F82FEF3FEF4FE75FE7C501C4
:100B2000B4010E94E30E81110BC02FEF3FEF4FE79E
:100B30005FE7C501B40131D762E672E0181664F0D0
:100B40002FEF3FEF4FE75FE4C701B6010E94DF0ED2
:100B50001816ACF466E672E0CE01DF91CF911F91DA
:100B6000FF90EF90DF90CF90BF90AF909F908F90CD
:100B70007F906F905F904F903F902F904FCF2FEFCF
:100B80003FEF4FE75FECC701B60107D787FDE2CF24
:100B900020E030E0A901C701B601FFD6312C212C9D
:100BA00087FF0DC0E881F9810190F081E02D6DE2B1
:100BB000CE0119951C01F7FAF094F7F8F09410E0C3
:100BC00060E070E080E09FE3711641F020E030E0EB
:100BD00040E251E40E944B0E1F5FF6CFA701960141
:100BE000F6D72B013C010E94B30E4B015C012AE0B9
:100BF000BC01A401CE0121DF7C01E20CF31C112316
:100C0000B1F1C501B401CDD69B01AC01C301B20164
:100C1000DDD74B015C01E881F9810190F081E02D85
:100C20006EE2CE011995E80EF91E115000F120E098
:100C300030E040E251E4C501B40114D72B013C017E
:100C40000E94B30E4B01B12CA12C2AE0B501A401E6
:100C5000CE01F3DEE80EF91EC501B401A2D69B0158
:100C6000AC01C301B201B2D74B015C01DECFC701B9
:100C7000DF91CF911F91FF90EF90DF90CF90BF90C9
:100C8000AF909F908F907F906F905F904F903F902C
:100C90002F900895C3CE1F920F920FB60F9211247A
:100CA0000BB60F922F933F934F935F936F937F9366
:100CB0008F939F93AF93BF93EF93FF9381EA93E05A
:100CC00068DBFF91EF91BF91AF919F918F917F91E1
:100CD0006F915F914F913F912F910F900BBE0F90AD
:100CE0000FBE0F901F9018951F920F920FB60F9284
:100CF00011240BB60F922F938F939F93EF93FF9333
:100D0000E091B103F091B2038081E091B703F091DB
:100D1000B80382FD1DC090818091BA038F5F8F73ED
:100D20002091BB03821741F0E091BA03F0E0EF5548
:100D3000FC4F958F8093BA03FF91EF919F918F9114
:100D40002F910F900BBE0F900FBE0F901F90189514
:100D50008081F2CF1F920F920FB60F9211242F9322
:100D60003F938F939F93AF93BF9380916A0390912A
:100D70006B03A0916C03B0916D033091690323E084
:100D8000230F2D3758F50196A11DB11D209369033E
:100D900080936A0390936B03A0936C03B0936D03ED
:100DA00080916E0390916F03A0917003B0917103D5
:100DB0000196A11DB11D80936E0390936F03A093C4
:100DC0007003B0937103BF91AF919F918F913F9149
:100DD0002F910F900FBE0F901F90189526E8230FAC
:100DE0000296A11DB11DD2CF1F920F920FB60F9286
:100DF00011240BB60F922F933F934F935F936F93F2
:100E00007F938F939F93AF93BF93EF93FF938091C3
:100E1000B900887F803609F44CC008F03FC08832A2
:100E200009F4A8C028F5803109F49CC0C8F48823CF
:100E300009F4FAC0883009F495C0FF91EF91BF9191
:100E4000AF919F918F917F916F915F914F913F9162
:100E50002F910F900BBE0F900FBE0F901F90189503
:100E6000883109F487C0803241F78093450314C06C
:100E7000803409F49CC040F48033B9F38833E9F638
:100E80008093450385ECAFC0803509F484C0883574
:100E900009F495C0883489F63ADCCFCF883909F453
:100EA0008CC038F5883729F050F4883611F0803737
:100EB00021F683E0809378031092440357C088386A
:100EC00009F47BC0803919F0803809F0B6CF8091E1
:100ED0004403803208F071C0E091440381E08E0F3A
:100EE000809344038091BB00F0E0EC5DFC4F808375
:100EF0003DC0803B39F0E0F4803A09F479C0883A8B
:100F000009F09BCF84E08093780310922303109222
:100F10002203E0917403F0917503199580912203E7
:100F200081110FC081E0809322031092020309C057
:100F3000803C09F4A7CF883C09F4A4CF883B09F092
:100F40007CCFE091230381E08E0F80932303F0E0B8
:100F5000EE5FFC4F80818093BB00909123038091D2
:100F6000220329C0809168038093BB0085EC8093A5
:100F7000BC0063CF9091670380916603981758F582
:100F8000E091670381E08E0F80936703F0E0EA5BF6
:100F9000FC4F8081E9CFE091670381E08E0F809361
:100FA00067038091BB00F0E0EA5BFC4F8083909187
:100FB0006703809166039817C8F285E8D8CFE0915F
:100FC000670381E08E0F809367038091BB00F0E0A0
:100FD000EA5BFC4F80838091770381115DCF81E0D4
:100FE0008093760384EA8093BC001092780325CF27
:100FF00085EC8093BC00109278038091440380328A
:1010000030F4E0914403F0E0EC5DFC4F108260911D
:10101000440370E0E0917203F091730384E293E083
:1010200019951092440309CF1092450335CFEF92E2
:10103000FF920F931F93CF93DF93EC017B011982F3
:1010400018821B821A821D821C82FB0101900020E3
:10105000E9F731978F01061B170BB8016F5F7F4FC0
:1010600090E080E00E9436100097B9F09983888361
:101070001B830A832C813D81232B11F4FC011082F8
:101080001D830C83B70188819981DF91CF911F91D6
:101090000F91FF90EF900C941B118881998100971C
:1010A00009F05BD7198218821D821C821B821A826A
:1010B000DF91CF911F910F91FF90EF900895E1EA9A
:1010C000F3E01382128288EE93E0A0E0B0E0848324
:1010D0009583A683B78322E332E0318320832DEC0E
:1010E00030E0358724872CEC30E03787268728ECE2
:1010F00030E0318B208B29EC30E0338B228B2AECD3
:1011000030E0358B248B2EEC30E0378B268B118E24
:10111000128E138E148EEEE3F4E013821282848317
:101120009583A683B78384E492E091838083E6E588
:10113000F4E01382128286E592E09183808387E255
:10114000848384E1818784E0828713866AE672E083
:101150008AE494E06CDF6FE672E080E594E067CFAC
:10116000CF93DF93CDB7DEB760970FB6F894DEBFAD
:101170000FBECDBF789484B5826084BD84B5816094
:1011800084BD85B5826085BD85B5816085BD809152
:101190006E00816080936E001092810080918100CA
:1011A00082608093810080918100816080938100C2
:1011B000809180008160809380008091B100846084
:1011C0008093B1008091B00081608093B0008091E5
:1011D0009100826080939100809191008160809362
:1011E0009100809190008160809390008091A10097
:1011F00082608093A1008091A10081608093A10012
:101200008091A00081608093A00080912101826084
:10121000809321018091210181608093210180913F
:10122000200181608093200180917A008460809306
:101230007A0080917A00826080937A0080917A00AF
:10124000816080937A0080917A00806880937A0030
:101250001092C100E091B103F091B20382E080836B
:10126000E091AD03F091AE031082E091AF03F091F5
:10127000B0038FEC80831092B903E091B503F09135
:10128000B60386E08083E091B303F091B4038081DC
:1012900080618083E091B303F091B4038081886022
:1012A0008083E091B303F091B403808180688083F0
:1012B000E091B303F091B40380818F7D808382E15C
:1012C0000E94350183E10E94350187E10E943501CA
:1012D00089E10E9435018BE10E9435018DE10E9478
:1012E00035018FE10E94350181E20E9435018FE2D4
:1012F0000E9435018DE20E9435018BE20E9435018A
:1013000089E20E94350187E20E94350185E40E944E
:10131000350184E40E94350185E30E94350188E3AC
:101320000E94350181E30E9435018FE30E9435015F
:1013300080E40E94350181E40E94350182E40E942C
:10134000350183E40E94350110927C0310927B03E7
:1013500010927A03109279031092780381E08093BF
:1013600077031092760361E084E137D961E085E18B
:1013700034D98091B9008E7F8093B9008091B900F3
:101380008D7F8093B90088E48093B80085E48093D2
:10139000BC0084E591E0909375038093740385E528
:1013A00091E0909373038093720310925B04809199
:1013B0006004823018F098E090935B0480935E04A0
:1013C00062E370E080E090E071D96091610486E5AD
:1013D00094E052DA68EE73E080E090E067D960E371
:1013E00086E594E0B0DA0BE416E4C8010197F1F762
:1013F00060E386E594E0A7DAC8010197F1F760E3BE
:1014000086E594E0A0DA83E592E00197F1F760E2E7
:1014100086E594E098DA60915B04606240E086E5DE
:1014200094E0A7DA84E080935C0440E06CE086E519
:1014300094E09FDAB3DA82E080935D0440E066E0F6
:1014400086E594E096DA40E062E086E594E091DAA1
:101450008BE39FE10197F1F788E08093610460E0FE
:1014600086E594E009DA60E080E0A2DA64E772E001
:1014700086E594E00FDC61E080E09ADA60E872E0F3
:1014800086E594E007DC62E080E092DA6CE872E0E6
:1014900086E594E0FFDB63E080E08ADA62E972E0EF
:1014A00086E594E0F7DB68EB7BE080E090E0FED837
:1014B00075DA32E0632E31E0732E42ECA42E41E067
:1014C000B42E5CE7852E51E0952E8BE3B3D8BC019A
:1014D000990F880B990B67D22FE632E143E85AE364
:1014E000C1D220E030EC4FE754E4D5D360939D03A4
:1014F00070939E0380939F039093A0038AE39AD8EE
:10150000BC01990F880B990B4ED220E030E040E6E9
:1015100051E4A8D220E030EC4FE754E4BCD3609310
:10152000990370939A0380939B0390939C038CE39D
:1015300081D8BC01990F880B990B35D220E030E09F
:1015400040EF51E48FD220E030EC4FE754E4A3D3D6
:1015500020E030E048EC52E49ED320E030E040E868
:101560005FE335D36093950370939603809397035D
:10157000909398038DE35ED8BC01990F880B990B6B
:1015800012D220E030E040EF51E46CD220E030ECA9
:101590004FE754E480D320E030E048EC52E47BD3C2
:1015A00020E030E040E85FE312D360939103709352
:1015B0009203809393039093940387E33BD8BC01F9
:1015C000990F880B990BEFD120E030EC46E454E4FE
:1015D00049D220E030EC4FE754E45DD360930C0235
:1015E00070930D0280930E0290930F0286E322D82F
:1015F000BC01990F880B990BD6D120E030EC4EE856
:1016000054E430D220E030EC4FE754E444D360930C
:1016100008027093090280930A0290930B0289E3F7
:1016200009D8BC01990F880B990BBDD120E030E09F
:1016300048EC52E417D220E030EC4FE754E42BD3CF
:1016400060938D0370938E0380938F039093900328
:1016500088E30E941A03BC01990F880B990BA3D150
:1016600020E030E048EC52E4FDD120E030EC4FE7E0
:1016700054E411D36093890370938A0380938B039E
:1016800090938C036CE972E081EA93E003DB409174
:101690000C0250910D0260910E0270910F0222E037
:1016A00081EA93E015DA61EA72E081EA93E0B6D963
:1016B00064EA72E081EA93E0EDDA40910802509129
:1016C000090260910A0270910B0222E081EA93E024
:1016D000FFD961EA72E081EA93E0A0D96CE972E097
:1016E00081EA93E0D7DA61EA72E081EA93E096D981
:1016F0006CE972E081EA93E0CDDA61EA72E081EAB6
:1017000093E08CD96CE972E081EA93E0C3DA61EA94
:1017100072E081EA93E082D9F3018491F5010491AA
:10172000F40114911111EAC066E970E080E090E0E4
:101730000E9456038091950390919603A091970380
:10174000B09198038093850390938603A0938703B9
:10175000B093880380918D0390918E03A0918F03A5
:10176000B09190038093810390938203A0938303AD
:10177000B09384038091890390918A03A0918B0395
:10178000B0918C0380937D0390937E03A0937F039D
:10179000B09380038091080290910902A0910A02FF
:1017A000B0910B028093040290930502A09306026D
:1017B000B093070280910C0290910D02A0910E024D
:1017C000B0910F028093000290930102A093020255
:1017D000B093030260E080E0EBD86CE972E086E54C
:1017E00094E058DA409100025091010260910202A7
:1017F0007091030220E086E594E06AD964EA72E021
:1018000086E594E047DA4091040250910502609128
:1018100006027091070220E086E594E059D961E064
:1018200080E0C6D869EA72E086E594E033DA409158
:10183000810350918203609183037091840320E0BF
:1018400086E594E045D960EB72E086E594E022DA23
:1018500040917D0350917E0360917F0370918003DE
:1018600020E086E594E034D962E08CEFA1D866EB05
:1018700072E086E594E00EDA40918503509186038C
:10188000609187037091880322E086E594E020D977
:101890006BEB72E086E594E0FDD9409185035091B1
:1018A0008603609187037091880322E086E594E0C7
:1018B0000FD963E08CEF7CD84091540450915504CB
:1018C000609150047091510486E594E00E945601A5
:1018D00064E670E080E090E00E9456035FD880E10B
:1018E000EEE1F2E0DE01119601900D928A95E1F7AA
:1018F00095E0C92ED12CF12CE12C14C081110E944D
:101900008602E12FF0E0EE0FFF1FEC51FF4FA59193
:10191000B4918C91082309F407CF5CCFF4E0EF1663
:10192000F10449F38701000F111F000F111F81E01F
:1019300090E08C0F9D1F080F191FF801608182E154
:101940000E94ED02F801618183E10E94ED02F8013D
:10195000628187E10E94ED02F801638189E10E94C2
:10196000ED0268EC70E080E090E00E945603FFEF2B
:10197000EF1AFF0A81E0C81AD10881F60E945602C8
:10198000A4CDCF93DF93CAE4D4E08E819F81E5D2CA
:1019900088819981DF91CF91E0C240D008F481E045
:1019A0000895E89409C097FB3EF490958095709552
:1019B00061957F4F8F4F9F4F9923A9F0F92F96E99B
:1019C000BB279395F695879577956795B795F11110
:1019D000F8CFFAF4BB0F11F460FF1BC06F5F7F4FAD
:1019E0008F4F9F4F16C0882311F096E911C07723BF
:1019F00021F09EE8872F762F05C0662371F096E8C8
:101A0000862F70E060E02AF09A95660F771F881F96
:101A1000DAF7880F9695879597F90895990F00083A
:101A2000550FAA0BE0E8FEEF16161706E807F907B0
:101A3000C0F012161306E407F50798F0621B730B4B
:101A4000840B950B39F40A2661F0232B242B252BCC
:101A500021F408950A2609F4A140A6958FEF811D6F
:101A6000811D08950BD078C069D028F06ED018F091
:101A7000952309F05AC05FC01124A2C07ED0A0F304
:101A8000959FD1F3950F50E0551F629FF001729F13
:101A9000BB27F00DB11D639FAA27F00DB11DAA1F32
:101AA000649F6627B00DA11D661F829F2227B00D7F
:101AB000A11D621F739FB00DA11D621F839FA00D0A
:101AC000611D221F749F3327A00D611D231F849F5A
:101AD000600D211D822F762F6A2F11249F575040B1
:101AE0008AF0E1F088234AF0EE0FFF1FBB1F661F4C
:101AF000771F881F91505040A9F79E3F510570F005
:101B000014C05EC05F3FECF3983EDCF3869577959A
:101B10006795B795F795E7959F5FC1F7FE2B880FFF
:101B2000911D9695879597F9089597F99F6780E895
:101B300070E060E008959FEF80EC089500240A941F
:101B40001616170618060906089500240A94121698
:101B50001306140605060895092E0394000C11F4CB
:101B6000882352F0BB0F40F4BF2B11F460FF04C078
:101B70006F5F7F4F8F4F9F4F089557FD9058440FD1
:101B8000551F59F05F3F71F04795880F97FB991FDC
:101B900061F09F3F79F08795089512161306140699
:101BA000551FF2CF4695F1DF08C016161706180626
:101BB000991FF1CF86957105610508940895E89401
:101BC000BB2766277727CB0197F908955058BB2785
:101BD000AA270ED0C1CFB2DF30F0B7DF20F031F44A
:101BE0009F3F11F41EF4A7CF0EF4E095E7FB9DCFC5
:101BF000E92FC3DF80F3BA176207730784079507DD
:101C000018F071F49EF5DBCF0EF4E0950B2EBA2F91
:101C1000A02D0B01B90190010C01CA01A0011124F2
:101C2000FF27591B99F0593F50F4503E68F11A169E
:101C3000F040A22F232F342F4427585FF3CF46952F
:101C400037952795A795F0405395C9F77EF41F1651
:101C5000BA0B620B730B840BBAF09150A1F0FF0F1B
:101C6000BB1F661F771F881FC2F70EC0BA0F621F07
:101C7000731F841F48F4879577956795B795F795F7
:101C80009E3F08F0B3CF9395880F08F09927EE0F89
:101C90009795879508950CD05FCF57DF40F04EDFC2
:101CA00030F021F45F3F19F040CF511189CF43CF7D
:101CB00064DF98F39923C9F35523B1F3951B550BB2
:101CC000BB27AA2762177307840738F09F5F5F4F0F
:101CD000220F331F441FAA1FA9F333D00E2E3AF050
:101CE000E0E830D091505040E695001CCAF729D06A
:101CF000FE2F27D0660F771F881FBB1F26173707B9
:101D00004807AB07B0E809F0BB0B802DBF01FF27E8
:101D100093585F4F2AF09E3F510568F006CF50CF91
:101D20005F3FECF3983EDCF3869577956795B79522
:101D3000F7959F5FC9F7880F911D9695879597F93D
:101D40000895E1E0660F771F881FBB1F62177307B6
:101D50008407BA0720F0621B730B840BBA0BEE1FCB
:101D600088F7E095089511DF88F09F5790F0B92F1C
:101D70009927B751A0F0D1F0660F771F881F991FE0
:101D80001AF0BA95C9F712C0B13081F018DFB1E08E
:101D9000089515CF672F782F8827B85F39F0B93F9E
:101DA000CCF3869577956795B395D9F73EF49095E2
:101DB0008095709561957F4F8F4F9F4F08952EDED0
:101DC00008F48FEF08952ADE880B990B0895A1E29D
:101DD0001A2EAA1BBB1BFD010DC0AA1FBB1FEE1FA5
:101DE000FF1FA217B307E407F50720F0A21BB30BF0
:101DF000E40BF50B661F771F881F991F1A9469F76C
:101E000060957095809590959B01AC01BD01CF01C7
:101E10000895EE0FFF1F881F8BBF0790F691E02DEE
:101E200019940F931F93CF93DF938230910510F491
:101E300082E090E0E0916404F091650430E020E0FD
:101E4000B0E0A0E0309799F42115310509F44AC0BB
:101E5000281B390B24303105D8F58A819B81611507
:101E6000710589F1FB0193838283FE0111C04081DA
:101E700051810281138148175907E0F0481759072B
:101E800099F4109761F012960C93129713961C9385
:101E90003296CF01DF91CF911F910F91089500935A
:101EA000640410936504F4CF2115310551F04217F5
:101EB000530738F0A901DB019A01BD01DF01F801E8
:101EC000C1CFEF01F9CF9093650480936404CDCF27
:101ED000FE01E20FF31F8193919322503109398360
:101EE0002883D7CF2091620430916304232B41F4DF
:101EF0002091120230911302309363042093620404
:101F000020911002309111022115310541F42DB7B5
:101F10003EB74091140250911502241B350BE091FD
:101F20006204F0916304E217F307A0F42E1B3F0B49
:101F30002817390778F0AC014E5F5F4F241735073B
:101F400048F04E0F5F1F50936304409362048193E7
:101F500091939FCFF0E0E0E09CCFCF93DF93009789
:101F6000E9F0FC01329713821282A0916404B091CF
:101F70006504ED0130E020E01097A1F4208131816B
:101F8000820F931F20916204309163042817390750
:101F900009F061C0F0936304E0936204DF91CF9194
:101FA0000895EA01CE17DF07E8F54A815B819E01BB
:101FB00041155105B1F7E901FB83EA834991599134
:101FC000C40FD51FEC17FD0761F480819181029643
:101FD000840F951FE90199838883828193819B8374
:101FE0008A83F0E0E0E012968D919C911397009720
:101FF000B9F52D913C911197CD010296820F931F57
:1020000020916204309163042817390739F630971C
:1020100051F51092650410926404B0936304A09388
:102020006204BCCFD383C28340815181840F951F4A
:10203000C817D90761F44E5F5F4F88819981480FB7
:10204000591F518340838A819B8193838283211509
:10205000310509F0B0CFF0936504E09364049ECF9E
:10206000FD01DC01C0CF13821282D7CF4F925F9265
:102070006F927F928F929F92AF92BF92CF92DF9298
:10208000EF92FF920F931F93CF93DF938C010097F2
:1020900091F4CB01DF91CF911F910F91FF90EF90C1
:1020A000DF90CF90BF90AF909F908F907F906F9078
:1020B0005F904F90B6CEFC01E60FF71F9C012250B7
:1020C0003109E217F30708F4AAC0D901CD91DC91D8
:1020D0001197C617D70718F1C530D10570F0CE019A
:1020E00004978617970748F0C61BD70B2297C19312
:1020F000D1936D937C93CF0130DFC801DF91CF91F5
:102100001F910F91FF90EF90DF90CF90BF90AF9015
:102110009F908F907F906F905F904F9008955B019C
:10212000AC1ABD0A4C018C0E9D1EA0916404B091A6
:102130006504512C412CF12CE12C109731F5809144
:102140006204909163048815990509F05CC04616F5
:10215000570608F058C08091100290911102009724
:1021600041F48DB79EB74091140250911502841B23
:10217000950BE817F90708F052C0F0936304E09359
:102180006204F90171836083B8CF8D919C9111979E
:1021900012966C90129713967C901397A815B90518
:1021A00059F56C0142E0C40ED11CCA14DB0420F1C5
:1021B000AC014A195B09DA011296159780F0628228
:1021C000738251834083D9016D937C93E114F104B0
:1021D00071F0D7011396FC93EE9312978ECF22964F
:1021E0008C0F9D1FF90191838083F301EFCFF09352
:1021F0006504E093640481CF4816590608F42C0165
:102200007D01D3019ACFCB010CDE7C01009739F020
:10221000AE01B80107D0C801A0DE87016ECF10E083
:1022200000E06BCFFB01DC0102C001900D92415038
:102230005040D8F70895FB01DC0101900D92002079
:10224000E1F7089511E0C3E0D1E000E005C0802F80
:10225000FE01DFDD2196011DC430D10780E00807B3
:06226000B1F7F894FFCF76
:10226600C3F54441C3F54441C3F54441C3F5444174
:1022760000006604800000004000140054000100C5
:102286000001010001000001010000010001000041
:102296000000EB01560183013702B4019201A60149
:1022A600000000000E04E203A004B803DB03C80329
:1022B600B9030000000009055601A0049F046E61E1
:1022C6006E00696E66006F766600706F733100701F
:1022D6006F733200202020204163756172696F00A0
:1022E600202020202053616D62696C0020205361FC
:1022F6006E0043726973746F62616C004C4D543AA0
:10230600000D0A004C52543A004C464F4F443A00D6
:102316004C53414C5400434552540043454D5400E0
:020000023000CC
:10E000000D9489F10D94B2F10D94B2F10D94B2F129
:10E010000D94B2F10D94B2F10D94B2F10D94B2F1F0
:10E020000D94B2F10D94B2F10D94B2F10D94B2F1E0
:10E030000D94B2F10D94B2F10D94B2F10D94B2F1D0
:10E040000D94B2F10D94B2F10D94B2F10D94B2F1C0
:10E050000D94B2F10D94B2F10D94B2F10D94B2F1B0
:10E060000D94B2F10D94B2F10D94B2F10D94B2F1A0
:10E070000D94B2F10D94B2F10D94B2F10D94B2F190
:10E080000D94B2F10D94B2F10D94B2F10D94B2F180
:10E090000D94B2F10D94B2F10D94B2F10D94B2F170
:10E0A0000D94B2F10D94B2F10D94B2F10D94B2F160
:10E0B0000D94B2F10D94B2F10D94B2F10D94B2F150
:10E0C0000D94B2F10D94B2F10D94B2F10D94B2F140
:10E0D0000D94B2F10D94B2F10D94B2F10D94B2F130
:10E0E0000D94B2F141546D656761323536300041AF
:10E0F000726475696E6F206578706C6F72657220DE
:10E1000073746B3530305632206279204D4C530099
:10E11000426F6F746C6F616465723E004875683F52
:10E1200000436F6D70696C6564206F6E203D200048
:10E130004350552054797065202020203D20005FF9
:10E140005F4156525F415243485F5F3D2000415658
:10E1500052204C696243205665723D20004743437C
:10E160002056657273696F6E203D20004350552024
:10E1700049442020202020203D20004C6F7720663D
:10E18000757365202020203D20004869676820665F
:10E190007573652020203D200045787420667573D6
:10E1A00065202020203D20004C6F636B2066757336
:10E1B000652020203D20004D617220203720323024
:10E1C000313300312E362E3800342E332E350056A2
:10E1D00023202020414444522020206F7020636F70
:10E1E00064652020202020696E73747275637469E1
:10E1F0006F6E2061646472202020496E74657272B3
:10E20000757074006E6F20766563746F7200726A49
:10E210006D702020006A6D70200057686174207056
:10E220006F72743A00506F7274206E6F7420737541
:10E2300070706F72746564004D7573742062652030
:10E2400061206C6574746572002000577269747483
:10E25000696E672045450052656164696E672045B7
:10E26000450045452065727220636E743D00504F35
:10E27000525400303D5A65726F2061646472003FF1
:10E280003D43505520737461747300403D454550C3
:10E29000524F4D207465737400423D426C696E6B41
:10E2A000204C454400453D44756D70204545505215
:10E2B0004F4D00463D44756D7020464C415348001B
:10E2C000483D48656C70004C3D4C69737420492F83
:10E2D0004F20506F72747300513D51756974005234
:10E2E0003D44756D702052414D00563D73686F7707
:10E2F00020696E7465727275707420566563746FF0
:10E30000727300593D506F727420626C696E6B00BD
:10E310002A0011241FBECFEFD1E2DEBFCDBF01E046
:10E320000CBF12E0A0E0B2E0EEE1FDEF03E00BBFB6
:10E3300002C007900D92A030B107D9F712E0A0E01B
:10E34000B2E001C01D92AE30B107E1F70F9460F367
:10E350000D948DFE01E20EBF0FEF0DBF11241FBE05
:10E360000D9460F30D9400F020E030E040ED57E0B4
:10E3700005C0FA013197F1F72F5F3F4F2817390792
:10E38000C0F308959C01260F311DC901A0E0B0E043
:10E390002F5F3F4FABBFFC018791882361F08093D3
:10E3A000C6008091C00086FFFCCF8091C0008064D1
:10E3B0008093C000EACF08958DE08093C6008091DD
:10E3C000C00086FFFCCF8091C00080648093C000B5
:10E3D0008AE08093C6008091C00086FFFCCF8091C8
:10E3E000C00080648093C00008950F94C2F10F9420
:10E3F000DCF10895FC019081992359F09093C600B7
:10E400008091C00086FFFCCF8091C0008064809323
:10E41000C0003196992379F70895282F982F929567
:10E420009F70892F805D8A3308F0895F8093C600D2
:10E430008091C00086FFFCCF8091C00080648093F3
:10E44000C000822F8F70982F905D9A3308F0995FEB
:10E450009093C6008091C00086FFFCCF8091C000E1
:10E4600080648093C00008959C01FB01853691056E
:10E470001CF46330710594F0C90164E670E00F94F8
:10E480002EFE605D7F4F6093C6008091C00086FFC6
:10E49000FCCF8091C00080648093C0002B30310598
:10E4A00014F43297B4F0C90164E670E00F942EFEC4
:10E4B0006AE070E00F942EFE605D7F4F6093C600AF
:10E4C0008091C00086FFFCCF8091C0008064809363
:10E4D000C000C9016AE070E00F942EFEC0968093E0
:10E4E000C6008091C00086FFFCCF8091C000806490
:10E4F0008093C00008951F93182F8EE692EE60E07F
:10E500000F94C2F11093C6008091C00086FFFCCF2B
:10E510008091C00080648093C0000F94DCF11F9153
:10E5200008952F923F924F925F926F927F928F92B7
:10E530009F92AF92BF92CF92DF92EF92FF920F9392
:10E540001F93DF93CF93CDB7DEB762970FB6F894E2
:10E55000DEBF0FBECDBF382E622ECA01DB015C01CB
:10E560006D01772420E2222E2E010894411C511CBB
:10E570008BC081E0A81680E0B80681E0C80680E084
:10E58000D80628F0C601AA27BB270F940DF2BB2797
:10E59000AD2D9C2D8B2D0F940DF28A2D0F940DF225
:10E5A0002092C6008091C00086FFFCCF8091C00001
:10E5B00080648093C0009DE29093C6008091C0006B
:10E5C00086FFFCCF8091C00080648093C0002092C1
:10E5D000C6008091C00086FFFCCF8091C00080649F
:10E5E0008093C00019828601750188249924A1E0D6
:10E5F0003A1651F03A1620F0B2E03B1661F409C029
:10E600000BBFF701779007C0C7010F9477FE782EF4
:10E6100002C0F7017080872D0F940DF22092C60082
:10E620008091C00086FFFCCF8091C0008064809301
:10E63000C000872D8052F401EF70F0708F3520F408
:10E64000E40DF51D708204C0E40DF51D8EE280839B
:10E650000894E11CF11C011D111D0894811C911CE2
:10E6600090E18916910409F0C2CF80E190E0A0E02A
:10E67000B0E0A80EB91ECA1EDB1E198AC2010F9493
:10E68000FAF10F94DCF16A94662009F072CF629679
:10E690000FB6F894DEBF0FBECDBFCF91DF911F91B3
:10E6A0000F91FF90EF90DF90CF90BF90AF909F9031
:10E6B0008F907F906F905F904F903F902F90089534
:10E6C0002F923F924F925F926F927F928F929F9282
:10E6D000AF92BF92CF92DF92EF92FF920F931F9370
:10E6E000DF93CF93CDB7DEB7CD53D1400FB6F894BB
:10E6F000DEBF0FBECDBF01E20EBF0FEF0DBF94B75F
:10E70000F894A89514BE80916000886180936000A1
:10E7100010926000789493FF05C0E0910002F091A0
:10E7200001021995279A2F9A8091C00082608093E8
:10E73000C00080E18093C40088E18093C1000000A4
:10E74000EE24FF24870144E0A42EB12CCC24DD2448
:10E7500024C0C5010197F1F70894E11CF11C011DCB
:10E76000111D21E2E2162EE4F20620E0020720E06D
:10E77000120718F031E0C32ED12CC801B70127ECE5
:10E780003BE140E050E00F9441FE611571058105C9
:10E79000910519F485B1805885B98091C00087FD35
:10E7A00003C0C114D104A9F2A6014F5F5F4FC25E3E
:10E7B000DE4F59834883CE51D140C25EDE4F8881FF
:10E7C0009981CE51D140019711F00D9410FEC05D9A
:10E7D000DE4F19821882C053D14060E0C15DDE4F28
:10E7E0001882CF52D14088249924C35DDE4F19820C
:10E7F0001882CD52D140C05EDE4F188219821A8233
:10E800001B82C052D140CE5CDE4F188219821A8220
:10E810001B82C253D140EE24FF2487010BBFF701B6
:10E8200007911691C45CDE4F19830883CC53D14005
:10E830000D940BFEC25EDE4F28813981CE51D1404E
:10E840002130310509F52091C600C25EDE4F1982E4
:10E850001882CE51D14022C02F5F3F4F4F4F5F4FA4
:10E86000213082E138078AE7480780E0580780F0C6
:10E87000C45CDE4FE881F981CC53D140EF5FFF4F9C
:10E8800019F0EE27FF27099420E030E040E050E047
:10E890008091C00087FFE0CF2091C600C35DDE4FAE
:10E8A00048815981CD52D1404F5F5F4FC35DDE4FEC
:10E8B00059834883CD52D140213209F063C64A3092
:10E8C000510508F05FC60894811C911C53E0851621
:10E8D000910409F059C600E010E018C081E280936D
:10E8E000C6008091C00086FFFCCF8091C00080648C
:10E8F0008093C0002F5F3F4F2931310579F70F9486
:10E90000DCF10F5F1F4F0530110519F020E030E0FA
:10E91000E5CF10920A0210920B0210920C02109294
:10E920000D02109206021092070210920802109235
:10E930000902109202021092030210920402109235
:10E9400005028FEE90EE60E00F94F5F180E191EE1C
:10E9500060E00F94C2F18091C00087FFFCCF9091DE
:10E96000C600903608F09F759032B8F09093C600BC
:10E970008091C00086FFFCCF8091C00080648093AE
:10E98000C000A0E2A093C6008091C00086FFFCCF2B
:10E990008091C00080648093C000983409F4D7C18E
:10E9A0009934B8F4923409F459C1933458F490333B
:10E9B00019F1903308F4E3C59F33A1F1903409F0C5
:10E9C000DEC5BDC0953409F470C1963409F0D7C5D1
:10E9D00098C1923509F42BC2933538F49C3409F46C
:10E9E000F5C1913509F0CBC518C2963509F445C279
:10E9F000993509F0C4C567C483E792EE62E00F94CD
:10EA0000F5F110920602109207021092080210927D
:10EA1000090210920A0210920B0210920C0210923C
:10EA20000D0213C18FE792EE62E00F94F5F18FEEC5
:10EA300090EE60E00F94F5F181E291EE60E00F94CA
:10EA4000C2F187EB91EE60E00F94F5F180E391EE77
:10EA500060E00F94C2F184EE90EE60E00F94F5F167
:10EA60008FE391EE60E00F94C2F186E090E061E008
:10EA700070E00F9434F20F94DCF18DE591EE60E0DC
:10EA80000F94C2F189EC91EE60E00F94F5F18EE401
:10EA900091EE60E00F94C2F183EC91EE60E00F9490
:10EAA000F5F18CE691EE60E00F94C2F18EE10F94E7
:10EAB0000DF288E90F940DF281E00F940DF20F949E
:10EAC000DCF18BE791EE60E00F94C2F119E0E0E039
:10EAD000F0E010935700E4918E2F0F940DF20F94F5
:10EAE000DCF18AE891EE60E00F94C2F1E3E0F0E03F
:10EAF00010935700E4918E2F0F940DF20F94DCF1D8
:10EB000089E991EE60E00F94C2F1E2E0F0E0109349
:10EB10005700E4918E2F0F940DF20F94DCF188EAE8
:10EB200091EE60E00F94C2F1E1E0F0E01093570045
:10EB30001491812F0F940DF20F94DCF107CF8BE825
:10EB400092EE62E00F94F5F18BE492EE60E00F94A8
:10EB5000F5F10F94DCF100E010E019C0C8016F2D51
:10EB60000F947FFEFF2031F489E492EE60E00F9471
:10EB7000C2F10BC0F092C6008091C00086FFFCCFAE
:10EB80008091C00080648093C0000F5F1F4FC80158
:10EB900081519F41A0E0B0E0ABBFFC01F790BAE229
:10EBA000FB1621F0E2E000301E07C1F60F94DCF105
:10EBB0000F94DCF187E592EE60E00F94F5F10F948D
:10EBC000DCF1CC24DD2400E010E01EC0C8010F946D
:10EBD00077FEF82E882331F489E492EE60E00F94FA
:10EBE000C2F10BC08093C6008091C00086FFFCCFAD
:10EBF0008091C00080648093C000FE1419F00894D6
:10EC0000C11CD11C0F5F1F4FC80181519F41A0E063
:10EC1000B0E0ABBFFC01E790FAE2EF1621F022E092
:10EC20000030120799F60F94DCF10F94DCF182E6C4
:10EC300092EE60E00F94C2F1C60161E070E00F94C3
:10EC400034F20F94DCF10F94DCF110920202109276
:10EC50000302109204021092050278CE89E992EE26
:10EC600062E00F94F5F1279A2F9A16C02F9880E052
:10EC700090E0E0EDF7E03197F1F7019684369105E9
:10EC8000C1F72F9A80E090E0E0EDF7E03197F1F7DF
:10EC9000019684369105C1F78091C00087FFE6CFC9
:10ECA0008091C00087FFFCCF64C485EA92EE62E0E9
:10ECB0000F94F5F140910202509103026091040219
:10ECC0007091050281E020E10F9491F2809102029F
:10ECD00090910302A0910402B091050280509F4FD1
:10ECE000AF4FBF4F8093020290930302A0930402A0
:10ECF000B093050280509041A040B04008F426CE69
:10ED0000A4CF83EB92EE62E00F94F5F140910602FE
:10ED100050910702609108027091090280E020E1A1
:10ED20000F9491F28091060290910702A09108023F
:10ED3000B091090280509F4FAF4FBF4F80930602A2
:10ED400090930702A0930802B0930902FFCD80ECD4
:10ED500092EE62E00F94F5F183E792EE60E00F949B
:10ED6000F5F18FE792EE60E00F94F5F18BE892EE0B
:10ED700060E00F94F5F189E992EE60E00F94F5F10F
:10ED800085EA92EE60E00F94F5F183EB92EE60E09D
:10ED90000F94F5F180EC92EE60E00F94F5F187ECC2
:10EDA00092EE60E00F94F5F188ED92EE60E00F9442
:10EDB000F5F18FED92EE60E00F94F5F18AEE92EEB0
:10EDC00060E00F94F5F183E093EEBDCD87EC92EE19
:10EDD00062E00F94F5F181E40F947BF282E40F94EA
:10EDE0007BF283E40F947BF284E40F947BF285E45E
:10EDF0000F947BF286E40F947BF287E40F947BF20E
:10EE000088E40F947BF28AE40F947BF28BE40F94F6
:10EE10007BF28CE40F947BF299CD88ED92EE62E068
:10EE20000F94F5F1772473948824992409C48FED05
:10EE300092EE62E00F94F5F140910A0250910B02BC
:10EE400060910C0270910D0282E020E10F9491F22A
:10EE500080910A0290910B02A0910C02B0910D02D8
:10EE600080509F4FAF4FBF4F80930A0290930B0289
:10EE7000A0930C02B0930D0269CD8AEE92EE62E08F
:10EE80000F94F5F184EE90EE60E00F94F5F18FECC5
:10EE900091EE60E00F94F5F1662477244301CC5D98
:10EEA000DE4F19821882C452D140D401C301B695F5
:10EEB000A79597958795CA5DDE4F88839983AA8326
:10EEC000BB83C652D140CC5DDE4FA881B981C4520C
:10EED000D1401196CC5DDE4FB983A883C452D14096
:10EEE000CD0162E070E00F9434F2B0E2B093C6005E
:10EEF0008091C00086FFFCCF8091C0008064809329
:10EF0000C000EDE2E093C6008091C00086FFFCCF18
:10EF10008091C00080648093C000F0E2F093C6004E
:10EF20008091C00086FFFCCF8091C00080648093F8
:10EF3000C000CA5DDE4FE880F9800A811B81C6529D
:10EF4000D140BB27A12F902F8F2D0F940DF2CA5DBA
:10EF5000DE4F8881C652D1400F940DF2B0E2FB2EF5
:10EF6000F092C6008091C00086FFFCCF8091C00067
:10EF700080648093C0000DE30093C6008091C000C0
:10EF800086FFFCCF8091C00080648093C00010E2B7
:10EF90001093C6008091C00086FFFCCF8091C00016
:10EFA00080648093C0008BBEF3012791C65DDE4F65
:10EFB0002883CA52D140A22EBB24CC24DD2408943D
:10EFC000611C711C811C911C8BBEF3018791282E42
:10EFD0003324442455240894611C711C811C911C09
:10EFE0008BBEF3013791C55DDE4F3883CB52D140E4
:10EFF0000894611C711C811C911C8BBEF30147910C
:10F00000C45DDE4F4883CC52D140ADEFEA2EAFEF66
:10F01000FA2EAFEF0A2FAFEF1A2F6E0C7F1C801E57
:10F02000911E142D032DF22CEE24EA0CFB1C0C1D5A
:10F030001D1D0F940DF220E22093C6008091C000A8
:10F0400086FFFCCF8091C00080648093C000C65DC5
:10F05000DE4F8881CA52D1400F940DF230E23093D6
:10F06000C6008091C00086FFFCCF8091C000806404
:10F070008093C000C45DDE4F8881CC52D1400F9494
:10F080000DF240E24093C6008091C00086FFFCCFA5
:10F090008091C00080648093C000C55DDE4F888190
:10F0A000CB52D1400F940DF250E25093C6008091A4
:10F0B000C00086FFFCCF8091C00080648093C000B8
:10F0C0008FEFE8168FEFF80680E0080780E018075A
:10F0D00031F484E092EE60E00F94C2F1DFC0D80119
:10F0E000C7018070907CA070B0708050904CA040A0
:10F0F000B040D1F52FEF3FE340E050E0E222F322B1
:10F1000004231523CA5DDE4FA880B980CA80DB8046
:10F11000C652D140AE0CBF1CC01ED11EAA0CBB1CD7
:10F12000CC1CDD1C8EE092EE60E00F94C2F1BB2798
:10F13000A12F902F8F2D0F940DF28E2D0F940DF285
:10F1400030E23093C6008091C00086FFFCCF8091F2
:10F15000C00080648093C0004EE34093C60080915D
:10F16000C00086FFFCCF87C08EE09EEFA0E0B0E03D
:10F17000E822F9220A231B239CE0E91694E9F90608
:10F1800090E0090790E0190709F088C0C45DDE4FE0
:10F19000A881CC52D140EA2EFF2400E010E0102FCD
:10F1A0000F2DFE2CEE24C55DDE4FB881CB52D14031
:10F1B000EB0EF11C011D111DD601C501817090706F
:10F1C000A070B070DC0199278827E80EF91E0A1F8D
:10F1D0001B1F20EF30E040E050E0A222B322C42207
:10F1E000D52241E1AA0CBB1CCC1CDD1C4A95D1F7F1
:10F1F000EA0CFB1C0C1D1D1D81E090E0A0E0B0E0BE
:10F20000282239224A225B2235E1220C331C441C7D
:10F21000551C3A95D1F7E20CF31C041D151D57013E
:10F220006801AA0CBB1CCC1CDD1C85E192EE60E0E1
:10F230000F94C2F1C801AA27BB270F940DF2BB2778
:10F24000A12F902F8F2D0F940DF28E2D0F940DF274
:10F2500090E29093C6008091C00086FFFCCF809121
:10F26000C00080648093C000AEE3A093C60080918C
:10F27000C00086FFFCCF8091C00080648093C000F6
:10F28000C601AA27BB270F940DF2BB27AD2D9C2DDD
:10F290008B2D0F940DF28A2D0F940DF20F94DCF14B
:10F2A000CC5DDE4FE881F981C452D140F99709F471
:10F2B0004DCBF4E0EF2EF12C012D112D6E0C7F1CA7
:10F2C000801E911EF2CD83E093EE62E00F94F5F183
:10F2D0008AE192EE60E00F94C2F18091C00087FF56
:10F2E000FCCF1091C6001F751093C6008091C0001E
:10F2F00086FFFCCF8091C00080648093C0000F9493
:10F30000DCF1812F81548A3108F036C1163409F4BA
:10F3100095C0173490F4133409F44EC0143430F40B
:10F320001134F1F0123409F01DC130C0143409F465
:10F3300059C0153409F016C16BC01A3409F4C4C0A1
:10F340001B3438F4173409F48FC0183409F00AC19B
:10F35000A1C01B3409F4D2C01C3409F003C1E8C0B9
:10F360008FEF81B90DC082B1809582B980E090E0C5
:10F37000E0EDF7E03197F1F70196883C9105C1F790
:10F380008091C00087FFEFCF12B8EFC08FEF84B934
:10F390000DC085B1809585B980E090E0E0EDF7E0A3
:10F3A0003197F1F70196883C9105C1F78091C00033
:10F3B00087FFEFCF15B8D9C08FEF87B90DC088B1DF
:10F3C000809588B980E090E0E0EDF7E03197F1F7C3
:10F3D0000196883C9105C1F78091C00087FFEFCF6F
:10F3E00018B8C3C08FEF8AB90DC08BB180958BB9A7
:10F3F00080E090E0E0EDF7E03197F1F70196883C8E
:10F400009105C1F78091C00087FFEFCF1BB8ADC059
:10F410008FEF8DB90DC08EB180958EB980E090E0F0
:10F42000E0EDF7E03197F1F70196883C9105C1F7DF
:10F430008091C00087FFEFCF1EB897C08FEF80BBD1
:10F440000DC081B3809581BB80E090E0E0EDF7E0F6
:10F450003197F1F70196883C9105C1F78091C00082
:10F4600087FFEFCF11BA81C08FEF83BB0DC084B38C
:10F47000809584BB80E090E0E0EDF7E03197F1F714
:10F480000196883C9105C1F78091C00087FFEFCFBE
:10F4900014BA6BC08FEF809301010FC080910201FD
:10F4A00080958093020180E090E0E0EDF7E03197F5
:10F4B000F1F70196883C9105C1F78091C00087FF64
:10F4C000EDCF1092020151C08FEF809304010FC065
:10F4D0008091050180958093050180E090E0E0ED4A
:10F4E000F7E03197F1F70196883C9105C1F78091DB
:10F4F000C00087FFEDCF1092050137C08FEF8093DA
:10F5000007010FC08091080180958093080180E079
:10F5100090E0E0EDF7E03197F1F70196883C910536
:10F52000C1F78091C00087FFEDCF109208011DC088
:10F530008FEF80930A010FC080910B01809580931B
:10F540000B0180E090E0E0EDF7E03197F1F70196F4
:10F55000883C9105C1F78091C00087FFEDCF1092E4
:10F560000B0103C085E292EEEEC98091C00087FFD7
:10F57000FCCF8091C600EAC988E392EEE4C98CE131
:10F5800091EEE1C988249924933011F1943028F444
:10F59000913089F09230B8F408C0953061F195301F
:10F5A000F0F0963009F048C043C02B3109F042C951
:10F5B00091E06BE13FC96227C15DDE4F2883CF52E6
:10F5C000D14092E037C9B22FA0E0622793E032C960
:10F5D000822F90E0A82BB92B622794E02BC92E3004
:10F5E00009F039C3622795E0C05DDE4F19821882A9
:10F5F000C053D1401FC9E1E0F0E0EC0FFD1FC05D3A
:10F60000DE4F08811981C053D140E00FF11F2083E4
:10F610000F5F1F4FC05DDE4F19830883C053D14079
:10F6200062270A171B0709F005C9D80196E002C92D
:10F63000261709F010C303C0973009F0FBC87724E0
:10F640009981933109F412C19431C8F4963009F4C8
:10F65000D8C0973050F4923009F406C1933009F4C1
:10F660006DC0913009F059C253C0913109F477C08F
:10F67000923108F0BBC0903109F04FC2F5C098310B
:10F6800009F487C0993150F4953109F4EFC09531F0
:10F6900008F4C6C1963109F040C2C2C19A3109F4DA
:10F6A0006CC09A3108F491C09B3109F45BC09D3164
:10F6B00009F033C29D81903359F48F81882311F46E
:10F6C0009EE11CC0813011F091E018C098E916C08D
:10F6D000892F807591F0903539F4E0E0F0E089E011
:10F6E0008093570094910AC0983539F4E3E0F0E034
:10F6F00089E080935700949101C090E01A821B82A8
:10F700008D818C831D829E831F8227E030E009C299
:10F710001A8288E08B8381E48C8386E58D8382E581
:10F720008E8389E48F8383E5888780E589878FE5E9
:10F730008A8782E38B872BE030E0F3C18A818139AD
:10F7400041F0823941F0803911F48FE005C080E04A
:10F7500003C082E001C08AE01A828B8344C0772410
:10F76000739482C08D81882311F48EE12CC0813086
:10F7700011F081E028C088E926C01A82E1E0F0E0BB
:10F7800089E08093570084918B831C8224E030E0D1
:10F79000C8C18B81803589F48C81883039F4E2E0EE
:10F7A000F0E089E08093570084910DC0E0E0F0E044
:10F7B00089E080935700849106C0E3E0F0E089E09F
:10F7C0008093570084911A82DFCF8D81836C99E0FA
:10F7D000E1E0F0E0082E90935700E89507B600FCB2
:10F7E000FDCF1A821B8223E030E09BC180EC8A832C
:10F7F000CE5CDE4F188219821A821B82C253D1401E
:10F800008EC18A8190E0A0E0B0E0582F44273327D2
:10F8100022278B8190E0A0E0B0E0DC0199278827C7
:10F82000282B392B4A2B5B2B8D8190E0A0E0B0E098
:10F83000282B392B4A2B5B2B8C8190E0A0E0B0E089
:10F84000BA2FA92F982F8827282B392B4A2B5B2BCF
:10F85000220F331F441F551FC05EDE4F288339839C
:10F860004A835B83C052D1401A8259C13A81C95C34
:10F87000DE4F3883C753D140CA5CDE4F1882C6536F
:10F88000D1408B81C82EDD24CA5CDE4F488159816E
:10F89000C653D140C42AD52A933109F082C0CE5C28
:10F8A000DE4F88819981AA81BB81C253D1408050AB
:10F8B000904CA340B04030F583E0CE5CDE4FE88052
:10F8C000F9800A811B81C253D140F70100935B008C
:10F8D00080935700E89507B600FCFDCFCE5CDE4F65
:10F8E000088119812A813B81C253D14000501F4FAA
:10F8F0002F4F3F4FCE5CDE4F088319832A833B8313
:10F90000C253D140C05EDE4F488159816A817B81FC
:10F91000C052D140DE011B9631E08C9111962C91A2
:10F9200011971296C75CDE4F2883C953D140C85C3B
:10F93000DE4F1882C853D14090E0C85CDE4FE881AA
:10F94000F981C853D1408E2B9F2B0C01FA01609393
:10F950005B0030935700E89511244E5F5F4F6F4F67
:10F960007F4F0EEFE02E0FEFF02ECE0CDF1CC114F8
:10F97000D10499F685E0C05EDE4F088119812A81A5
:10F980003B81C052D140F80120935B008093570027
:10F99000E89507B600FCFDCF81E180935700E8951C
:10F9A00035C0C05EDE4F88819981AA81BB81C0527B
:10F9B000D140B695A795979587957C018601ABE0D8
:10F9C000AA2EB12CAC0EBD1E0BC0D5016D915D01F0
:10F9D000C7010F947FFE0894E11CF11C01501040F8
:10F9E0000115110591F7A60160E070E0440F551F65
:10F9F000661F771FC05EDE4FE880F9800A811B8199
:10FA0000C052D1404E0D5F1D601F711F1A82C05E33
:10FA1000DE4F488359836A837B83C052D1407FC0C5
:10FA2000FA80C55CDE4FF882CB53D140C65CDE4F16
:10FA30001882CA53D1408B81C82EDD24C65CDE4FAC
:10FA400008811981CA53D140C02AD12A1A828981DA
:10FA5000BE016D5F7F4F843121F59601C05EDE4FA0
:10FA6000E880F9800A811B81C052D1400BBFF701A9
:10FA700087919691DB018C9311969C936E5F7F4FDB
:10FA8000D801C7010296A11DB11DC05EDE4F88835B
:10FA90009983AA83BB83C052D14022503040F1F6F3
:10FAA00036C0C05EDE4F288139814A815B81C052F9
:10FAB000D1400894C108D108760100E010E0089414
:10FAC000C11CD11C0894E11CF11C011D111DE20E8A
:10FAD000F31E041F151F21BDBB27A52F942F832FB5
:10FAE00082BD2F5F3F4F4F4F5F4FF89A80B5DB01CC
:10FAF0008D93BD012E153F054007510761F7C05E8C
:10FB0000DE4F288339834A835B83C052D1409601FC
:10FB10002D5F3F4FFB01108204C080EC8A8322E0FE
:10FB200030E08BE18093C6008091C00086FFFCCF5F
:10FB30008091C00080648093C000C15DDE4FF88179
:10FB4000CF52D140F093C6008091C00086FFFCCF19
:10FB50008091C00080648093C000432F3093C60022
:10FB60008091C00086FFFCCF8091C00080648093AC
:10FB7000C000922F2093C6008091C00086FFFCCF6A
:10FB80008091C00080648093C0008EE08093C600A6
:10FB90008091C00086FFFCCF8091C000806480937C
:10FBA000C00065E1C15DDE4FE880CF52D1406E25D7
:10FBB00069276427FE01319610C090819093C6009A
:10FBC0008091C00086FFFCCF31968091C000806498
:10FBD0008093C0006927215030402115310569F715
:10FBE0006093C6008091C00086FFFCCF8091C0006A
:10FBF00080648093C00085B1805885B9772081F4F6
:10FC0000C15DDE4F0881CF52D1400F5FC15DDE4F35
:10FC10000883CF52D14090E0A0E0B0E00D941AF4F8
:10FC200027982F9880E090E020ED37E0F901319798
:10FC3000F1F7019684369105C9F700008091C00064
:10FC40008D7F8093C00081E180935700E895EE2777
:10FC5000FF270994FFCF90E00D941AF497FB092E2B
:10FC600007260AD077FD04D02ED006D000201AF443
:10FC7000709561957F4F0895F6F7909581959F4F08
:10FC80000895A1E21A2EAA1BBB1BFD010DC0AA1FDD
:10FC9000BB1FEE1FFF1FA217B307E407F50720F0F5
:10FCA000A21BB30BE40BF50B661F771F881F991F70
:10FCB0001A9469F760957095809590959B01AC01B9
:10FCC000BD01CF010895AA1BBB1B51E107C0AA1FAC
:10FCD000BB1FA617B70710F0A61BB70B881F991FED
:10FCE0005A95A9F780959095BC01CD010895F99991
:10FCF000FECF92BD81BDF89A992780B50895262F31
:10FD0000F999FECF1FBA92BD81BD20BD0FB6F89400
:0EFD1000FA9AF99A0FBE01960895F894FFCF63
:040000033000E000E9
:00000001FF
