:1000000003C1000032C1000030C100002EC1000059
:100010002CC100002AC1000028C1000026C1000038
:1000200024C1000022C1000020C100001EC1000048
:100030001CC100001AC1000018C1000016C1000058
:1000400014C1000012C1000010C100000EC1000068
:100050000CC100000AC1000008C1000028C7000050
:1000600004C1000002C1000000C10000FEC0000089
:10007000FCC00000FAC00000F8C00000F6C000009C
:10008000F4C00000F2C00000F0C00000EEC00000AC
:10009000ECC00000EAC00000E8C0000052C7000049
:1000A000E4C00000E2C00000E0C00000DEC00000CC
:1000B000DCC00000DAC00000D8C00000D6C00000DC
:1000C000D4C00000D2C00000D0C00000BAC60000FA
:1000D0008FC60000CAC00000C8C00000C6C0000033
:1000E000C4C0000000002100240027002A002D00C9
:1000F0003000330001010000040107010A01000083
:100100002200250028002B002E00310034000201BF
:100110000000050108010B0100002000230026005B
:1001200029002C002F00320000010000030106010D
:10013000090105050505070508080808020202026D
:100140000A0A080804040404010101010101010173
:100150000303030303030303040707070C0C0C0C3E
:100160000C0C0C0C02020202060606060606060627
:100170000B0B0B0B0B0B0B0B0102102020080810B4
:100180002040102040800201020108040201010207
:1001900004081020408080402010080402018004E0
:1001A000020180402010080402010804020101023B
:1001B0000408102040800102040810204080000044
:1001C0000A0B02090C0D0E080703040100000000D1
:1001D000000000000000000000000000000000001F
:1001E00000000000000000000000121110000000DC
:1001F00000000000000000000000000000000000FF
:10020000000000000D09740F11241FBECFEFD1E2D2
:10021000DEBFCDBF00E00CBF24E0A2EEB2E001C023
:100220001D92AC38B207E1F712E0A0E0B2E0ECECCE
:10023000F7E200E00BBF02C007900D92A23EB107AB
:10024000D9F711E0C3E0D1E000E006C02197010931
:10025000802FFE010E94BC11C230D10780E0080748
:10026000A9F70E945E090C94D513CACE089508958B
:10027000AF92BF92CF92DF92EF92FF920F931F93B4
:10028000CF93DF936C017B018B01040F151FEB01F2
:100290005E01AE18BF08C017D10759F06991D601A9
:1002A000ED91FC910190F081E02DC6011995892B0B
:1002B00079F7C501DF91CF911F910F91FF90EF90DA
:1002C000DF90CF90BF90AF900895FC01538D448D87
:1002D000252F30E0842F90E0821B930B541710F0F1
:1002E000CF96089501970895FC01918D828D9817FE
:1002F00061F0A28DAE0FBF2FB11D5D968C91928DD6
:100300009F5F9F73928F90E008958FEF9FEF089506
:10031000FC01918D828D981731F0828DE80FF11DCF
:10032000858D90E008958FEF9FEF0895FC01918DEA
:10033000228D892F90E0805C9F4F821B91098F73E3
:100340009927089587EC93E0F1DF21E0892B09F4E8
:1003500020E0822F0895FC01A48DA80FB92FB11DB4
:10036000A35ABF4F2C91848D90E001968F739927EB
:10037000848FA689B7892C93A089B1898C918370C9
:1003800080648C93938D848D981306C00288F389C2
:10039000E02D80818F7D80830895EF92FF920F93EF
:1003A0001F93CF93DF93EC0181E0888F9B8D8C8D21
:1003B00098131AC0E889F989808185FF15C09FB715
:1003C000F894EE89FF896083E889F98980818370D8
:1003D000806480839FBF81E090E0DF91CF911F9187
:1003E0000F91FF90EF900895F62E0B8D10E00F5FA8
:1003F0001F4F0F731127E02E8C8D8E110BC00FB67F
:1004000007FCFACFE889F989808185FFF5CFCE0115
:10041000A2DFF2CFEB8DEC0FFD2FF11DE35AFF4F62
:10042000F0829FB7F8940B8FEA89FB898081806204
:10043000D0CFCF93DF93EC01888D8823B1F0AA89C8
:10044000BB89E889F9898C9185FD03C0808186FD8F
:100450000CC00FB607FCF7CF8C9185FFF2CF8081DF
:1004600085FFEDCFCE0177DFEACFDF91CF91089501
:1004700080E090E0892B49F080E090E0892B29F022
:100480000E94000081110E94000080E090E0892B12
:1004900049F080E090E0892B29F00E940000811152
:1004A0000E94000080E090E0892B21F04BDF811159
:1004B0000E94000080E090E0892B49F080E090E00D
:1004C000892B29F00E94000081110C9400000895EE
:1004D0008150823108F05AC0E82FF0E08827EC58AC
:1004E000FD4F8F4F0C94BC119402980286028C022F
:1004F0009002C6029B02A102A502AB02AF02B302A8
:10050000B902BD02C602C102C702CB0280918000BF
:100510008F77809380000895809180008F7DF9CF40
:1005200080918000877FF5CF84B58F7784BD089553
:1005300084B58F7DFBCF8091B0008F778093B00022
:1005400008958091B0008F7DF9CF809190008F77D2
:10055000809390000895809190008F7DF9CF8091D5
:100560009000877FF5CF8091A0008F778093A000C7
:1005700008958091A0008F7DF9CF8091A000877FA2
:10058000F5CF809120018F7780932001089580918D
:1005900020018F7DF9CF80912001877FF5CFCF9308
:1005A000DF93282F30E0F901E254FE4F8491F901E6
:1005B000E858FE4FD491F901EE5CFE4FC491CC2374
:1005C00099F0811185DFEC2FF0E0EE0FFF1FE85E60
:1005D000FE4FA591B491EC91ED2381E090E009F4F8
:1005E00080E0DF91CF91089580E090E0FACF1F93F3
:1005F000CF93DF93282F30E0F901E254FE4F84912E
:10060000F901E858FE4FD491F901EE5CFE4FC49118
:10061000CC23A1F0162F81115BDFEC2FF0E0EE0F61
:10062000FF1FE250FF4FA591B4918FB7F894EC9162
:10063000111108C0D095DE23DC938FBFDF91CF91DD
:100640001F910895DE2BF8CFCF93DF9390E0FC014C
:10065000E858FE4F24918E5C9E4FFC0184918823C4
:10066000D1F090E0880F991FFC01EC51FF4FA5914C
:10067000B491FC01E250FF4FC591D491623071F406
:100680009FB7F8943C91822F809583238C93E881C7
:100690002E2B28839FBFDF91CF9108958FB7F894B9
:1006A000EC912E2B2C938FBFF6CF90917B00977FF0
:1006B00090937B008653806480937C0080917A00C5
:1006C000806480937A0080917A0086FDFCCF8091CF
:1006D00078009091790008953FB7F89480918C0349
:1006E00090918D03A0918E03B0918F0326B5A89BA6
:1006F00005C02F3F19F00196A11DB11D3FBFBA2FB4
:10070000A92F982F8827BC01CD01620F711D811D73
:10071000911D42E0660F771F881F991F4A95D1F7F8
:1007200008958F929F92AF92BF92CF92DF92EF92F5
:10073000FF926B017C01D0DF4B015C01C114D1043D
:10074000E104F104B1F0C8DF681979098A099B094D
:10075000683E73408105910588F321E0C21AD108F3
:10076000E108F10888EE880E83E0981EA11CB11CF8
:10077000E5CFFF90EF90DF90CF90BF90AF909F902C
:100780008F90089585ED8093BC008091BC0084FD1E
:10079000FCCF10929603089520914403260F33272F
:1007A000331F21323105ECF420919603FC0190E0D7
:1007B00080E0243069F082E00895A0914403219103
:1007C000AC014C5D5C4FA40FB52FB11D2C9301966D
:1007D000861798F380914403680F6093440380E088
:1007E000089581E008950895E0919A038091990316
:1007F000E81730F4F0E0EC5FFC4F808190E0089562
:100800008FEF9FEF089590919A03809199032FEFB6
:100810003FEF981748F4E92FF0E0EC5FFC4F2081A0
:1008200030E09F5F90939A03C901089580919903E6
:1008300090919A03891B990B0895CF92DF92EF92C2
:10084000FF920F931F93CF93DF937C01CB018A011B
:1008500020910303222389F0EB016B01C40ED51E06
:10086000CC15DD0561F06991D701ED91FC91019006
:10087000F081E02DC7011995F3CF642F8DDFC801FA
:10088000DF91CF911F910F91FF90EF90DF90CF906C
:100890000895CF93DF931F92CDB7DEB76983209180
:1008A00003032223F9F020919703203258F021E02E
:1008B00030E0FC013383228390E080E00F90DF91F1
:1008C000CF91089580919803E82FF0E0ED51FD4F0E
:1008D000998190838F5F809398038093970381E041
:1008E00090E0ECCF61E0CE01019656DFF8CFCF93D8
:1008F000FC01C48121E020930303C093E202109223
:100900009803109297038385682B84E694E0C1DFF7
:1009100090919703913208F03FC080919603811126
:10092000FCCF82E08093960381E0809395038FEF64
:10093000809367031092890390938803A3EEB2E03B
:10094000E8E6F3E080E098132FC010928A038091CC
:100950008A03CC0FC82BC0938A0380919403813003
:1009600039F51092940380918A038093BB008091A3
:10097000BC0083FDF8CF85EC8093BC00809196038A
:100980008230E1F3809167038F3F31F080916703FC
:10099000803211F0809167031092980310929703B0
:1009A00010920303CF9108952D9121938F5FCBCFA8
:1009B00085EEE2CF089590E080E008958F929F92B7
:1009C000AF92BF92CF92DF92EF92FF920F931F935D
:1009D000CF93DF934B015A01E9018230910519F061
:1009E000682F8FE204DE82E08816910419F0682DEA
:1009F0008DE2FDDD82E0A816B10419F06A2D8BE2CC
:100A0000F6DDC230D10519F06C2F89E2F0DD02303D
:100A1000110519F0602F87E2EADD82E0E816F104A3
:100A200019F06E2D85E2E3DD82E0C816D10479F07D
:100A30006C2D83E2DF91CF911F910F91FF90EF908A
:100A4000DF90CF90BF90AF909F908F90D0CDDF91EF
:100A5000CF911F910F91FF90EF90DF90CF90BF90BB
:100A6000AF909F908F9008950F931F93CF938C0119
:100A7000C62F3DDF6C2F6460C80139DF6C2F6B7FA0
:100A8000C80135DF83EC90E00197F1F7CF911F911A
:100A90000F9108950F931F93CF93DF938C01D62F5F
:100AA000C42F607F642BE0DF80E1D89FB001112468
:100AB0006C2BC801DF91CF911F910F91D5CF40E0F2
:100AC00061E08CE794E0E6DF8BE39FE10197F1F7CB
:100AD0000895CF93DF9300D000D01F921F92CDB71F
:100AE000DEB798E0E7E1F2E0DE01119601900D92A9
:100AF0009A95E1F790918404961710F46FEF690FBF
:100B0000262F30E0220F331F41E050E04C0F5D1FD5
:100B1000240F351FF9016081680F606840E08CE7A1
:100B200094E028960FB6F894DEBF0FBECDBFDF91DC
:100B3000CF91B0CF41E0AEDF81E090E00895FB01BE
:100B400001900020E9F73197AF01461B570BDC01FC
:100B5000ED91FC910280F381E02D19948F929F9288
:100B6000AF92BF92EF92FF920F931F93CF93DF93B9
:100B7000CDB7DEB7A1970FB6F894DEBF0FBECDBFDD
:100B80007C01FA01CB0119A2223008F42AE08E017F
:100B90000F5D1F4F822E912CB12CA12CBF01A501FE
:100BA00094010E949A11F901CA016A3004F5605D4E
:100BB000D8016E938D01232B242B252B79F790E000
:100BC00080E0109719F0BD01C701B9DFA1960FB6FB
:100BD000F894DEBF0FBECDBFDF91CF911F910F9173
:100BE000FF90EF90BF90AF909F908F900895695CB9
:100BF000DFCF2F923F924F925F926F927F928F92B0
:100C00009F92AF92BF92CF92DF92EF92FF921F938B
:100C1000CF93DF93EC016A017B01722EAB01960149
:100C2000CB01B6010E9496116FE572E0811126C0DA
:100C300046015701E894B7F82FEF3FEF4FE75FE722
:100C4000C501B4010E94961181110CC02FEF3FEF36
:100C50004FE75FE7C501B4010E94800F63E672E0D1
:100C6000181664F02FEF3FEF4FE75FE4C701B601BE
:100C70000E9492111816ACF467E672E0CE01DF9183
:100C8000CF911F91FF90EF90DF90CF90BF90AF90EA
:100C90009F908F907F906F905F904F903F902F909C
:100CA0004ECF2FEF3FEF4FE75FECC701B6010E9439
:100CB000800F87FDE1CF20E030E0A901C701B60138
:100CC0000E94800F312C212C87FF0DC0E881F98113
:100CD0000190F081E02D6DE2CE0119951C01F7FA2B
:100CE000F094F7F8F09410E060E070E080E09FE3AB
:100CF000711641F020E030E040E251E40E94FE1025
:100D00001F5FF6CFA70196010E949A102B013C01AC
:100D10000E9466114B015C012AE0BC01A401CE01D6
:100D20001DDF7C01E20CF31C1123D9F1C501B401D4
:100D30000E94840F9B01AC01C301B2010E94991073
:100D40004B015C01E881F9810190F081E02D6EE2B8
:100D5000CE011995E80EF91E115018F120E030E08F
:100D600040E251E4C501B4010E94E50F2B013C01B2
:100D70000E9466114B01B12CA12C2AE0B501A401FF
:100D8000CE01ECDEE80EF91EC501B4010E94840F0D
:100D90009B01AC01C301B2010E9499104B015C019F
:100DA000DBCFC701DF91CF911F91FF90EF90DF90D4
:100DB000CF90BF90AF909F908F907F906F905F90FB
:100DC0004F903F902F900895CF93DF93AB01BC01DC
:100DD00022E087EC93E00DDFEC016BE672E087EC3C
:100DE00093E0ADDE8C0F9D1FDF91CF910895A7CECC
:100DF0001F920F920FB60F9211240BB60F922F93E2
:100E00003F934F935F936F937F938F939F93AF9392
:100E1000BF93EF93FF9387EC93E09DDAFF91EF91FF
:100E2000BF91AF919F918F917F916F915F914F9102
:100E30003F912F910F900BBE0F900FBE0F901F9000
:100E400018951F920F920FB60F9211240BB60F92A6
:100E50002F938F939F93EF93FF93E091D703F0919C
:100E6000D8038081E091DD03F091DE0382FD1DC097
:100E700090818091E0038F5F8F732091E10382174F
:100E800041F0E091E003F0E0E953FC4F958F80934F
:100E9000E003FF91EF919F918F912F910F900BBEE7
:100EA0000F900FBE0F901F9018958081F2CF1F9268
:100EB0000F920FB60F9211242F933F938F939F930E
:100EC000AF93BF9380919B0390919C03A0919D034E
:100ED000B0919E0330918B0323E0230F2D3758F5FB
:100EE0000196A11DB11D20938B0380939B039093CA
:100EF0009C03A0939D03B0939E0380918C039091DB
:100F00008D03A0918E03B0918F030196A11DB11D99
:100F100080938C0390938D03A0938E03B0938F03E3
:100F2000BF91AF919F918F913F912F910F900FBEE5
:100F30000F901F90189526E8230F0296A11DB11D52
:100F4000D2CF1F920F920FB60F9211240BB60F92B1
:100F50002F933F934F935F936F937F938F939F93C1
:100F6000AF93BF93EF93FF938091B900887F803652
:100F700009F44CC008F03FC0883209F4A8C028F535
:100F8000803109F49CC0C8F4882309F4FAC0883081
:100F900009F495C0FF91EF91BF91AF919F918F910F
:100FA0007F916F915F914F913F912F910F900BBE69
:100FB0000F900FBE0F901F901895883109F487C0CD
:100FC000803241F78093670314C0803409F49CC0D9
:100FD00040F48033B9F38833E9F68093670385ECF6
:100FE000AFC0803509F484C0883509F495C08834D1
:100FF00089F6C8DBCFCF883909F48CC038F588373B
:1010000029F050F4883611F0803721F683E0809380
:1010100096031092660357C0883809F47BC0803964
:1010200019F0803809F0B6CF80916603803208F05D
:1010300071C0E091660381E08E0F8093660380911A
:10104000BB00F0E0EA5BFC4F80833DC0803B39F0A1
:10105000E0F4803A09F479C0883A09F09BCF84E043
:10106000809396031092450310924403E0919203FB
:10107000F091930319958091440381110FC081E091
:10108000809344031092240309C0803C09F4A7CF45
:10109000883C09F4A4CF883B09F07CCFE09145035C
:1010A00081E08E0F80934503F0E0EC5DFC4F808182
:1010B0008093BB00909145038091440329C08091A7
:1010C0008A038093BB0085EC8093BC0063CF909132
:1010D000890380918803981758F5E091890381E08E
:1010E0008E0F80938903F0E0E859FC4F8081E9CFAF
:1010F000E091890381E08E0F809389038091BB008A
:10110000F0E0E859FC4F8083909189038091880337
:101110009817C8F285E8D8CFE091890381E08E0F57
:10112000809389038091BB00F0E0E859FC4F8083F5
:101130008091950381115DCF81E08093940384EACF
:101140008093BC001092960325CF85EC8093BC0061
:101150001092960380916603803230F4E09166032A
:10116000F0E0EA5BFC4F10826091660370E0E09172
:101170009003F091910386E493E019951092660331
:1011800009CF1092670335CFEF92FF920F931F9311
:10119000CF93DF93EC017B01198218821B821A82A4
:1011A0001D821C82FB0101900020E9F731978F011D
:1011B000061B170BB8016F5F7F4F90E080E00E9425
:1011C000E9120097B9F0998388831B830A832C81E5
:1011D0003D81232B11F4FC0110821D830C83B70188
:1011E00088819981DF91CF911F910F91FF90EF90AE
:1011F0000C94CE1388819981009711F00E9460129F
:10120000198218821D821C821B821A82DF91CF9163
:101210001F910F91FF90EF900895E7ECF3E0138298
:10122000128288EE93E0A0E0B0E084839583A683E9
:10123000B78323E332E03183208325ED30E0358727
:10124000248724ED30E03787268720ED30E0318B8E
:10125000208B21ED30E0338B228B22ED30E0358B7B
:10126000248B26ED30E0378B268B118E128E138E59
:10127000148EE4E6F4E01382128284839583A683BD
:10128000B78385E492E091838083ECE7F4E01382F6
:10129000128287E592E09183808387E2848384E1F0
:1012A000818784E0828713866EE672E080E794E0AF
:1012B0006BDF6AE772E086E794E066CFCF93DF9357
:1012C000CDB7DEB760970FB6F894DEBF0FBECDBFC7
:1012D000789484B5826084BD84B5816084BD85B511
:1012E000826085BD85B5816085BD80916E0081601D
:1012F00080936E00109281008091810082608093C3
:1013000081008091810081608093810080918000C4
:101310008160809380008091B10084608093B100EF
:101320008091B00081608093B000809191008260D4
:1013300080939100809191008160809391008091D1
:1013400090008160809390008091A10082608093E2
:10135000A1008091A10081608093A1008091A000F4
:1013600081608093A000809121018260809321019F
:101370008091210181608093210180912001816011
:101380008093200180917A00846080937A0080911C
:101390007A00826080937A0080917A0081608093E5
:1013A0007A0080917A00806880937A001092C10060
:1013B000E091D703F091D80382E08083E091D303DA
:1013C000F091D4031082E091D503F091D6038FEC15
:1013D00080831092DF03E091DB03F091DC0386E071
:1013E0008083E091D903F091DA038081806180836A
:1013F000E091D903F091DA03808188608083E091E5
:10140000D903F091DA03808180688083E091D90369
:10141000F091DA0380818F7D808362E084E014D9CB
:1014200062E085E011D962E086E00ED962E087E0F3
:101430000BD962E088E008D962E089E005D961E073
:1014400082E102D961E083E1FFD861E087E1FCD865
:1014500061E089E1F9D861E08BE1F6D861E08DE1E6
:10146000F3D861E08FE1F0D861E081E2EDD861E08E
:101470008FE2EAD861E08DE2E7D861E08BE2E4D860
:1014800061E089E2E1D861E087E2DED861E085E2EF
:10149000DBD861E083E2D8D861E085E4D5D861E0AB
:1014A00084E4D2D861E085E3CFD861E083E3CCD88F
:1014B00061E081E3C9D861E08FE3C6D861E080E4F0
:1014C000C3D861E081E4C0D861E082E4BDD861E0C6
:1014D00083E4BAD810929A03109299031092980359
:1014E000109297031092960381E0809395031092D7
:1014F000940361E084E17BD861E085E178D8809154
:10150000B9008E7F8093B9008091B9008D7F809360
:10151000B90088E48093B80085E48093BC0086E33A
:1015200091E0909393038093920387E391E09093EB
:1015300091038093900310928104809186048230FD
:1015400018F098E0909381048093840462E370E043
:1015500080E090E0E6D8609187048CE794E0C7D9FA
:1015600068EE73E080E090E0DCD860E38CE794E024
:101570007BDA0BE416E4C8010197F1F760E38CE72E
:1015800094E072DAC8010197F1F760E38CE794E028
:101590006BDA83E592E00197F1F760E28CE794E083
:1015A00063DA60918104606240E08CE794E072DA73
:1015B00084E08093820440E06CE08CE794E06ADA97
:1015C0007EDA82E08093830440E066E08CE794E07A
:1015D00061DA40E062E08CE794E05CDA8BE39FE163
:1015E0000197F1F788E08093870460E08CE794E04E
:1015F0007ED960E080E06DDA62E872E08CE794E02A
:10160000F6DB61E080E065DA6EE872E08CE794E09A
:10161000EEDB62E080E05DDA6AE972E08CE794E09C
:10162000E6DB63E080E055DA60EA72E08CE794E0A4
:10163000DEDB68EE73E080E090E073D840DA8BE3A5
:1016400034D8BC01990F880B990B60D42FE632E196
:1016500043E05BE3BAD420E030EC4FE754E4CED56E
:101660006093C3037093C4038093C5039093C60330
:101670008AE31BD8BC01990F880B990B47D420E053
:1016800030E040E651E4A1D420E030EC4FE754E4F0
:10169000B5D56093BF037093C0038093C10390934B
:1016A000C2038CE302D8BC01990F880B990B2ED48E
:1016B00020E030E040EF51E488D420E030EC4FE708
:1016C00054E49CD520E030E048EC52E497D52DEC72
:1016D0003CEC4CE85FE32ED56093BB037093BC03F6
:1016E0008093BD039093BE038DE30E945503BC011C
:1016F000990F880B990B0AD420E030E040EF51E4B9
:1017000064D420E030EC4FE754E478D520E030E0BA
:1017100048EC52E473D52DEC3CEC4CE85FE30AD581
:101720006093B7037093B8038093B9039093BA039F
:1017300087E30E945503BC01990F880B990BE6D3F0
:1017400020E030EC46E454E440D420E030EC4FE7B5
:1017500054E454D560930D0270930E0280930F02EF
:101760009093100286E30E945503BC01990F880BE9
:10177000990BCCD320E030EC4EE854E426D420E0A2
:1017800030EC4FE754E43AD56093090270930A02B3
:1017900080930B0290930C0289E30E945503BC01D5
:1017A000990F880B990BB2D320E030E048EC52E45B
:1017B0000CD420E030EC4FE754E420D56093B30321
:1017C0007093B4038093B5039093B60388E30E94AB
:1017D0005503BC01990F880B990B98D320E030E09A
:1017E00048EC52E4F2D320E030EC4FE754E406D565
:1017F0006093AF037093B0038093B1039093B203EF
:101800006AEA72E087EC93E0F2DA60910D0270917F
:101810000E0280910F0290911002D6DA6FEA72E008
:1018200087EC93E0E4DA6091090270910A028091FA
:101830000B0290910C02C8DA64EB72E087EC93E043
:10184000D6DA6091C3037091C4038091C50390916F
:10185000C603BADA6DEB72E087EC93E0C8DA609108
:10186000BF037091C0038091C1039091C203ACDAB1
:1018700061EC72E087EC93E0BADA6091B7037091A3
:10188000B8038091B9039091BA039EDA67EC72E0D5
:1018900087EC93E0ACDA6091BB037091BC0380915C
:1018A000BD039091BE0390DA84E00E94CF02892BA1
:1018B00009F076C0CC24C394D12CEE24E394F12C0F
:1018C00001E010E021E030E041E050E061E070E054
:1018D00081E090E073D866E970E080E090E00E94DB
:1018E0009103D12CC12CF12CE12C10E000E030E070
:1018F00020E050E040E070E060E090E080E05ED802
:101900008091BB039091BC03A091BD03B091BE0335
:101910008093AB039093AC03A093AD03B093AE035D
:101920008091B3039091B403A091B503B091B60335
:101930008093A7039093A803A093A903B093AA034D
:101940008091AF039091B003A091B103B091B20325
:101950008093A3039093A403A093A503B093A6033D
:101960008091090290910A02A0910B02B0910C02A1
:101970008093050290930602A0930702B093080299
:1019800080910D0290910E02A0910F02B091100271
:101990008093010290930202A0930302B093040289
:1019A00085E00E94CF02892B09F061C066E970E0F2
:1019B00080E090E00E949103D12CC12CF12CE12C0D
:1019C00010E000E030E020E050E040E070E060E057
:1019D00090E080E00E94DE0460E085E40E94F7026F
:1019E00060E085E30E94F70260E081E30E94F70275
:1019F00080E1EFE1F2E0DE01119601900D928A950F
:101A0000E1F79FE0C92ED12C8701000F111F000FB5
:101A1000111F81E090E08C0F9D1F080F191FF80126
:101A200060818BE10E94F702F80161818DE10E94E3
:101A3000F702F80162818FE10E94F702F8016381E9
:101A400081E20E94F70268EC70E080E090E00E9482
:101A50009103FFEFEF1AFF0A21E0C21AD10809F043
:101A600016C26CEB72E080E090E00E94910386E089
:101A70000E94CF02892B91F566E970E080E090E04A
:101A80000E94910312E0C12ED12CEE24E394F12C9C
:101A900002E010E022E030E042E050E062E070E07E
:101AA00082E090E00E94DE0461E081E30E94F702A0
:101AB0006CEB72E080E090E00E949103F12CE12C4D
:101AC00022E030E042E050E062E070E082E090E04E
:101AD0000E94DE0460E081E30E94F70287E00E943A
:101AE000CF02892B81F566E970E080E090E00E94EA
:101AF0009103A2E0CA2ED12CB2E0EB2EF12C01E032
:101B000010E030E020E050E040E062E070E082E091
:101B100090E00E94DE046CEB72E080E090E00E94B6
:101B2000910310E000E021E030E050E040E062E0AE
:101B300070E082E090E00E94DE046CEB72E080E0F6
:101B400090E00E94910388E00E94CF02892BA1F5CA
:101B5000E2E0CE2ED12CF2E0EF2EF12C02E010E0EC
:101B600022E030E041E050E062E070E082E090E0AE
:101B70000E94DE0466E970E080E090E00E9491033C
:101B80006CEB72E080E090E00E949103D12CC12CBC
:101B9000F12CE12C10E000E030E020E050E040E0EB
:101BA00070E060E090E080E00E94DE046CEB72E0A8
:101BB00080E090E00E94910389E00E94CF02892B8F
:101BC00009F07BC066E970E080E090E00E9491033C
:101BD00062E0C62ED12CF12CE12C10E000E021E0D7
:101BE00030E042E050E062E070E082E090E00E948D
:101BF000DE0480E1EFE1F2E0DE01119601900D924A
:101C00008A95E1F77AE0C72ED12C8701000F111FCA
:101C1000000F111FE1E0F0E0EC0FFD1F0E0F1F1F82
:101C2000F801608182E10E94F702F801618183E19D
:101C30000E94F702F801628187E10E94F702F80131
:101C4000638189E10E94F70268EC70E080E090E037
:101C50000E949103FFEFEF1AFF0A21E0C21AD10898
:101C600009F01DC142E0C42ED12CF12CE12C01E081
:101C700010E030E020E042E050E062E070E082E01E
:101C800090E00E94DE0461E085E40E94F7026CEBC4
:101C900072E080E090E00E94910360E081E30E94A6
:101CA000F70210E000E021E030E042E050E062E0C6
:101CB00070E082E090E00E94DE040E945F0560E038
:101CC00080E00E9469056AEA72E08CE794E08FD8B0
:101CD000409101025091020260910302709104024E
:101CE00020E08CE794E00E94F9056FEA72E08CE74F
:101CF00094E07DD840910502509106026091070260
:101D00007091080220E08CE794E00E94F90561E000
:101D100080E00E9469056DEC72E08CE794E067D882
:101D20004091A7035091A8036091A9037091AA0361
:101D300020E08CE794E00E94F90563ED72E08CE707
:101D400094E055D84091A3035091A4036091A5035A
:101D50007091A60320E08CE794E00E94F90562E010
:101D60008CEF0E94690568ED72E08CE794E03FD843
:101D70004091AB035091AC036091AD037091AE0301
:101D800022E08CE794E00E94F9056DED72E08CE7AB
:101D900094E02DD84091AB035091AC036091AD031A
:101DA0007091AE0322E08CE794E00E94F90563E0B5
:101DB0008CEF0E94690540917A0450917B046091F8
:101DC0007604709177048CE794E00E94380164E611
:101DD00070E080E090E00E9491032FB7F89480912A
:101DE0009B0390919C03A0919D03B0919E032FBFF4
:101DF00040919F035091A0036091A1037091A203B1
:101E0000841B950BA60BB70B8C3A9D40A105B10521
:101E1000D8F18091000291E08927809300022FB7CA
:101E2000F89480919B0390919C03A0919D03B091A5
:101E30009E032FBF80939F039093A003A093A103C1
:101E4000B093A20380910002882389F160E085E4C9
:101E50000E94F70261E085E30E94F70260E081E3FF
:101E60000E94F70222E0C22ED12C32E0E32EF12CA8
:101E700002E010E030E020E042E050E070E060E09E
:101E800081E090E00E94DE040E943802D8CB24E07A
:101E9000E216F10409F0B8CDF12CE12CB5CD84E0C7
:101EA000E816F10409F0B1CEF12CE12CAECE61E0E0
:101EB00085E40E94F70260E085E30E94F70261E09A
:101EC00081E30E94F70282E0C82ED12C92E0E92E35
:101ED000F12C02E010E021E030E042E050E061E06F
:101EE00070E090E080E0CECFCF93DF93C0E7D4E006
:101EF0008E819F81E5D288819981DF91CF91E0C267
:101F000040D008F481E00895E89409C097FB3EF4BE
:101F100090958095709561957F4F8F4F9F4F992336
:101F2000A9F0F92F96E9BB279395F69587957795B4
:101F30006795B795F111F8CFFAF4BB0F11F460FF74
:101F40001BC06F5F7F4F8F4F9F4F16C0882311F0CC
:101F500096E911C0772321F09EE8872F762F05C0E0
:101F6000662371F096E8862F70E060E02AF09A957B
:101F7000660F771F881FDAF7880F9695879597F970
:101F80000895990F0008550FAA0BE0E8FEEF16160A
:101F90001706E807F907C0F012161306E407F5075D
:101FA00098F0621B730B840B950B39F40A2661F0D1
:101FB000232B242B252B21F408950A2609F4A14074
:101FC000A6958FEF811D811D08950BD078C069D033
:101FD00028F06ED018F0952309F05AC05FC0112484
:101FE000A2C07ED0A0F3959FD1F3950F50E0551F6E
:101FF000629FF001729FBB27F00DB11D639FAA275E
:10200000F00DB11DAA1F649F6627B00DA11D661FAC
:10201000829F2227B00DA11D621F739FB00DA11DCD
:10202000621F839FA00D611D221F749F3327A00D87
:10203000611D231F849F600D211D822F762F6A2F23
:1020400011249F5750408AF0E1F088234AF0EE0FA8
:10205000FF1FBB1F661F771F881F91505040A9F7B5
:102060009E3F510570F014C05EC05F3FECF3983E98
:10207000DCF3869577956795B795F795E7959F5F1C
:10208000C1F7FE2B880F911D9695879597F90895B6
:1020900097F99F6780E870E060E008959FEF80EC1B
:1020A000089500240A9416161706180609060895BE
:1020B00000240A9412161306140605060895092E24
:1020C0000394000C11F4882352F0BB0F40F4BF2B93
:1020D00011F460FF04C06F5F7F4F8F4F9F4F0895D3
:1020E00057FD9058440F551F59F05F3F71F04795C9
:1020F000880F97FB991F61F09F3F79F087950895AE
:10210000121613061406551FF2CF4695F1DF08C0CC
:10211000161617061806991FF1CF869571056105E9
:1021200008940895E894BB2766277727CB0197F991
:1021300008955058BB27AA270ED0C1CFB2DF30F088
:10214000B7DF20F031F49F3F11F41EF4A7CF0EF457
:10215000E095E7FB9DCFE92FC3DF80F3BA17620755
:1021600073078407950718F071F49EF5DBCF0EF422
:10217000E0950B2EBA2FA02D0B01B90190010C0197
:10218000CA01A0011124FF27591B99F0593F50F4AF
:10219000503E68F11A16F040A22F232F342F442707
:1021A000585FF3CF469537952795A795F0405395FF
:1021B000C9F77EF41F16BA0B620B730B840BBAF0CF
:1021C0009150A1F0FF0FBB1F661F771F881FC2F73A
:1021D0000EC0BA0F621F731F841F48F4879577954E
:1021E0006795B795F7959E3F08F0B3CF9395880F05
:1021F00008F09927EE0F9795879508950CD05FCF3B
:1022000057DF40F04EDF30F021F45F3F19F040CF50
:10221000511189CF43CF64DF98F39923C9F3552334
:10222000B1F3951B550BBB27AA27621773078407C9
:1022300038F09F5F5F4F220F331F441FAA1FA9F37F
:1022400033D00E2E3AF0E0E830D091505040E69571
:10225000001CCAF729D0FE2F27D0660F771F881FD2
:10226000BB1F261737074807AB07B0E809F0BB0BC1
:10227000802DBF01FF2793585F4F2AF09E3F5105E5
:1022800068F006CF50CF5F3FECF3983EDCF38695C5
:1022900077956795B795F7959F5FC9F7880F911D5B
:1022A0009695879597F90895E1E0660F771F881F47
:1022B000BB1F621773078407BA0720F0621B730BFA
:1022C000840BBA0BEE1F88F7E095089511DF88F0B4
:1022D0009F5790F0B92F9927B751A0F0D1F0660F12
:1022E000771F881F991F1AF0BA95C9F712C0B1302D
:1022F00081F018DFB1E0089515CF672F782F882778
:10230000B85F39F0B93FCCF3869577956795B3956B
:10231000D9F73EF490958095709561957F4F8F4FDA
:102320009F4F08952EDE08F48FEF08952ADE880B64
:10233000990B0895A1E21A2EAA1BBB1BFD010DC02B
:10234000AA1FBB1FEE1FFF1FA217B307E407F50765
:1023500020F0A21BB30BE40BF50B661F771F881F41
:10236000991F1A9469F760957095809590959B01D7
:10237000AC01BD01CF010895EE0FFF1F881F8BBF79
:102380000790F691E02D19940F931F93CF93DF934D
:102390008230910510F482E090E0E0918A04F0919F
:1023A0008B0430E020E0B0E0A0E0309799F42115F4
:1023B000310509F44AC0281B390B24303105D8F502
:1023C0008A819B816115710589F1FB019383828369
:1023D000FE0111C0408151810281138148175907C4
:1023E000E0F04817590799F4109761F012960C9392
:1023F000129713961C933296CF01DF91CF911F91C4
:102400000F91089500938A0410938B04F4CF211543
:10241000310551F04217530738F0A901DB019A0149
:10242000BD01DF01F801C1CFEF01F9CF90938B041B
:1024300080938A04CDCFFE01E20FF31F8193919325
:102440002250310939832883D7CF209188043091D5
:102450008904232B41F4209113023091140230930C
:1024600089042093880420911102309112022115D1
:10247000310541F42DB73EB7409115025091160237
:10248000241B350BE0918804F0918904E217F307CF
:10249000A0F42E1B3F0B2817390778F0AC014E5FD4
:1024A0005F4F2417350748F04E0F5F1F5093890484
:1024B00040938804819391939FCFF0E0E0E09CCF1C
:1024C000CF93DF930097E9F0FC01329713821282D9
:1024D000A0918A04B0918B04ED0130E020E01097C8
:1024E000A1F420813181820F931F209188043091C3
:1024F00089042817390709F061C0F0938904E09333
:102500008804DF91CF910895EA01CE17DF07E8F53F
:102510004A815B819E0141155105B1F7E901FB83B9
:10252000EA8349915991C40FD51FEC17FD0761F457
:10253000808191810296840F951FE9019983888398
:10254000828193819B838A83F0E0E0E012968D91F3
:102550009C9113970097B9F52D913C911197CD015E
:102560000296820F931F20918804309189042817C6
:10257000390739F6309751F510928B0410928A047E
:10258000B0938904A0938804BCCFD383C2834081D5
:102590005181840F951FC817D90761F44E5F5F4FB3
:1025A00088819981480F591F518340838A819B817B
:1025B000938382832115310509F0B0CFF0938B040A
:1025C000E0938A049ECFFD01DC01C0CF138212820A
:1025D000D7CF4F925F926F927F928F929F92AF92DE
:1025E000BF92CF92DF92EF92FF920F931F93CF9300
:1025F000DF938C01009791F4CB01DF91CF911F9174
:102600000F91FF90EF90DF90CF90BF90AF909F9091
:102610008F907F906F905F904F90B6CEFC01E60F49
:10262000F71F9C0122503109E217F30708F4AAC0F2
:10263000D901CD91DC911197C617D70718F1C53094
:10264000D10570F0CE0104978617970748F0C61B96
:10265000D70B2297C193D1936D937C93CF0130DF39
:10266000C801DF91CF911F910F91FF90EF90DF9004
:10267000CF90BF90AF909F908F907F906F905F9022
:102680004F9008955B01AC1ABD0A4C018C0E9D1E43
:10269000A0918A04B0918B04512C412CF12CE12C97
:1026A000109731F5809188049091890488159905D7
:1026B00009F05CC04616570608F058C08091110218
:1026C00090911202009741F48DB79EB74091150288
:1026D00050911602841B950BE817F90708F052C0B9
:1026E000F0938904E0938804F90171836083B8CF83
:1026F0008D919C91119712966C90129713967C90E5
:102700001397A815B90559F56C0142E0C40ED11C08
:10271000CA14DB0420F1AC014A195B09DA011296F4
:10272000159780F06282738251834083D9016D9343
:102730007C93E114F10471F0D7011396FC93EE93AE
:1027400012978ECF22968C0F9D1FF9019183808363
:10275000F301EFCFF0938B04E0938A0481CF481606
:10276000590608F42C017D01D3019ACFCB010CDE70
:102770007C01009739F0AE01B80107D0C801A0DE96
:1027800087016ECF10E000E06BCFFB01DC0102C0DF
:1027900001900D9241505040D8F70895FB01DC01A3
:1027A00001900D920020E1F7089511E0C3E0D1E01F
:1027B00000E005C0802FFE01DFDD2196011DC43041
:0C27C000D10780E00807B1F7F894FFCFC4
:1027CC0001C3F54441C3F54441C3F54441C3F54449
:1027DC004100008C048000000040001400540001F3
:1027EC0000000101000100000101000001000100D6
:1027FC00000000CD013801650119029601740188B1
:10280C00010000000049041D04DB04F3031604035B
:10281C0004F403000000009A053801DB04DA046EAE
:10282C00616E00696E66006F7666000D0A00416C81
:10283C00696D656E74616E646F0044657361677574
:10284C006500202020204163756172696F00202093
:10285C0020202053616D62696C00202053616E0052
:10286C0043726973746F62616C004C4D543A004C46
:10287C0052543A00416D6D6F6E69613A0050483A9E
:10288C0000434552543A0043454D543A00464F4F8D
:10289C00443A0053414C3A004345523A0043454DAB
:0228AC003A00F0
:020000023000CC
:10E000000D9489F10D94B2F10D94B2F10D94B2F129
:10E010000D94B2F10D94B2F10D94B2F10D94B2F1F0
:10E020000D94B2F10D94B2F10D94B2F10D94B2F1E0
:10E030000D94B2F10D94B2F10D94B2F10D94B2F1D0
:10E040000D94B2F10D94B2F10D94B2F10D94B2F1C0
:10E050000D94B2F10D94B2F10D94B2F10D94B2F1B0
:10E060000D94B2F10D94B2F10D94B2F10D94B2F1A0
:10E070000D94B2F10D94B2F10D94B2F10D94B2F190
:10E080000D94B2F10D94B2F10D94B2F10D94B2F180
:10E090000D94B2F10D94B2F10D94B2F10D94B2F170
:10E0A0000D94B2F10D94B2F10D94B2F10D94B2F160
:10E0B0000D94B2F10D94B2F10D94B2F10D94B2F150
:10E0C0000D94B2F10D94B2F10D94B2F10D94B2F140
:10E0D0000D94B2F10D94B2F10D94B2F10D94B2F130
:10E0E0000D94B2F141546D656761323536300041AF
:10E0F000726475696E6F206578706C6F72657220DE
:10E1000073746B3530305632206279204D4C530099
:10E11000426F6F746C6F616465723E004875683F52
:10E1200000436F6D70696C6564206F6E203D200048
:10E130004350552054797065202020203D20005FF9
:10E140005F4156525F415243485F5F3D2000415658
:10E1500052204C696243205665723D20004743437C
:10E160002056657273696F6E203D20004350552024
:10E1700049442020202020203D20004C6F7720663D
:10E18000757365202020203D20004869676820665F
:10E190007573652020203D200045787420667573D6
:10E1A00065202020203D20004C6F636B2066757336
:10E1B000652020203D20004D617220203720323024
:10E1C000313300312E362E3800342E332E350056A2
:10E1D00023202020414444522020206F7020636F70
:10E1E00064652020202020696E73747275637469E1
:10E1F0006F6E2061646472202020496E74657272B3
:10E20000757074006E6F20766563746F7200726A49
:10E210006D702020006A6D70200057686174207056
:10E220006F72743A00506F7274206E6F7420737541
:10E2300070706F72746564004D7573742062652030
:10E2400061206C6574746572002000577269747483
:10E25000696E672045450052656164696E672045B7
:10E26000450045452065727220636E743D00504F35
:10E27000525400303D5A65726F2061646472003FF1
:10E280003D43505520737461747300403D454550C3
:10E29000524F4D207465737400423D426C696E6B41
:10E2A000204C454400453D44756D70204545505215
:10E2B0004F4D00463D44756D7020464C415348001B
:10E2C000483D48656C70004C3D4C69737420492F83
:10E2D0004F20506F72747300513D51756974005234
:10E2E0003D44756D702052414D00563D73686F7707
:10E2F00020696E7465727275707420566563746FF0
:10E30000727300593D506F727420626C696E6B00BD
:10E310002A0011241FBECFEFD1E2DEBFCDBF01E046
:10E320000CBF12E0A0E0B2E0EEE1FDEF03E00BBFB6
:10E3300002C007900D92A030B107D9F712E0A0E01B
:10E34000B2E001C01D92AE30B107E1F70F9460F367
:10E350000D948DFE01E20EBF0FEF0DBF11241FBE05
:10E360000D9460F30D9400F020E030E040ED57E0B4
:10E3700005C0FA013197F1F72F5F3F4F2817390792
:10E38000C0F308959C01260F311DC901A0E0B0E043
:10E390002F5F3F4FABBFFC018791882361F08093D3
:10E3A000C6008091C00086FFFCCF8091C0008064D1
:10E3B0008093C000EACF08958DE08093C6008091DD
:10E3C000C00086FFFCCF8091C00080648093C000B5
:10E3D0008AE08093C6008091C00086FFFCCF8091C8
:10E3E000C00080648093C00008950F94C2F10F9420
:10E3F000DCF10895FC019081992359F09093C600B7
:10E400008091C00086FFFCCF8091C0008064809323
:10E41000C0003196992379F70895282F982F929567
:10E420009F70892F805D8A3308F0895F8093C600D2
:10E430008091C00086FFFCCF8091C00080648093F3
:10E44000C000822F8F70982F905D9A3308F0995FEB
:10E450009093C6008091C00086FFFCCF8091C000E1
:10E4600080648093C00008959C01FB01853691056E
:10E470001CF46330710594F0C90164E670E00F94F8
:10E480002EFE605D7F4F6093C6008091C00086FFC6
:10E49000FCCF8091C00080648093C0002B30310598
:10E4A00014F43297B4F0C90164E670E00F942EFEC4
:10E4B0006AE070E00F942EFE605D7F4F6093C600AF
:10E4C0008091C00086FFFCCF8091C0008064809363
:10E4D000C000C9016AE070E00F942EFEC0968093E0
:10E4E000C6008091C00086FFFCCF8091C000806490
:10E4F0008093C00008951F93182F8EE692EE60E07F
:10E500000F94C2F11093C6008091C00086FFFCCF2B
:10E510008091C00080648093C0000F94DCF11F9153
:10E5200008952F923F924F925F926F927F928F92B7
:10E530009F92AF92BF92CF92DF92EF92FF920F9392
:10E540001F93DF93CF93CDB7DEB762970FB6F894E2
:10E55000DEBF0FBECDBF382E622ECA01DB015C01CB
:10E560006D01772420E2222E2E010894411C511CBB
:10E570008BC081E0A81680E0B80681E0C80680E084
:10E58000D80628F0C601AA27BB270F940DF2BB2797
:10E59000AD2D9C2D8B2D0F940DF28A2D0F940DF225
:10E5A0002092C6008091C00086FFFCCF8091C00001
:10E5B00080648093C0009DE29093C6008091C0006B
:10E5C00086FFFCCF8091C00080648093C0002092C1
:10E5D000C6008091C00086FFFCCF8091C00080649F
:10E5E0008093C00019828601750188249924A1E0D6
:10E5F0003A1651F03A1620F0B2E03B1661F409C029
:10E600000BBFF701779007C0C7010F9477FE782EF4
:10E6100002C0F7017080872D0F940DF22092C60082
:10E620008091C00086FFFCCF8091C0008064809301
:10E63000C000872D8052F401EF70F0708F3520F408
:10E64000E40DF51D708204C0E40DF51D8EE280839B
:10E650000894E11CF11C011D111D0894811C911CE2
:10E6600090E18916910409F0C2CF80E190E0A0E02A
:10E67000B0E0A80EB91ECA1EDB1E198AC2010F9493
:10E68000FAF10F94DCF16A94662009F072CF629679
:10E690000FB6F894DEBF0FBECDBFCF91DF911F91B3
:10E6A0000F91FF90EF90DF90CF90BF90AF909F9031
:10E6B0008F907F906F905F904F903F902F90089534
:10E6C0002F923F924F925F926F927F928F929F9282
:10E6D000AF92BF92CF92DF92EF92FF920F931F9370
:10E6E000DF93CF93CDB7DEB7CD53D1400FB6F894BB
:10E6F000DEBF0FBECDBF01E20EBF0FEF0DBF94B75F
:10E70000F894A89514BE80916000886180936000A1
:10E7100010926000789493FF05C0E0910002F091A0
:10E7200001021995279A2F9A8091C00082608093E8
:10E73000C00080E18093C40088E18093C1000000A4
:10E74000EE24FF24870144E0A42EB12CCC24DD2448
:10E7500024C0C5010197F1F70894E11CF11C011DCB
:10E76000111D21E2E2162EE4F20620E0020720E06D
:10E77000120718F031E0C32ED12CC801B70127ECE5
:10E780003BE140E050E00F9441FE611571058105C9
:10E79000910519F485B1805885B98091C00087FD35
:10E7A00003C0C114D104A9F2A6014F5F5F4FC25E3E
:10E7B000DE4F59834883CE51D140C25EDE4F8881FF
:10E7C0009981CE51D140019711F00D9410FEC05D9A
:10E7D000DE4F19821882C053D14060E0C15DDE4F28
:10E7E0001882CF52D14088249924C35DDE4F19820C
:10E7F0001882CD52D140C05EDE4F188219821A8233
:10E800001B82C052D140CE5CDE4F188219821A8220
:10E810001B82C253D140EE24FF2487010BBFF701B6
:10E8200007911691C45CDE4F19830883CC53D14005
:10E830000D940BFEC25EDE4F28813981CE51D1404E
:10E840002130310509F52091C600C25EDE4F1982E4
:10E850001882CE51D14022C02F5F3F4F4F4F5F4FA4
:10E86000213082E138078AE7480780E0580780F0C6
:10E87000C45CDE4FE881F981CC53D140EF5FFF4F9C
:10E8800019F0EE27FF27099420E030E040E050E047
:10E890008091C00087FFE0CF2091C600C35DDE4FAE
:10E8A00048815981CD52D1404F5F5F4FC35DDE4FEC
:10E8B00059834883CD52D140213209F063C64A3092
:10E8C000510508F05FC60894811C911C53E0851621
:10E8D000910409F059C600E010E018C081E280936D
:10E8E000C6008091C00086FFFCCF8091C00080648C
:10E8F0008093C0002F5F3F4F2931310579F70F9486
:10E90000DCF10F5F1F4F0530110519F020E030E0FA
:10E91000E5CF10920A0210920B0210920C02109294
:10E920000D02109206021092070210920802109235
:10E930000902109202021092030210920402109235
:10E9400005028FEE90EE60E00F94F5F180E191EE1C
:10E9500060E00F94C2F18091C00087FFFCCF9091DE
:10E96000C600903608F09F759032B8F09093C600BC
:10E970008091C00086FFFCCF8091C00080648093AE
:10E98000C000A0E2A093C6008091C00086FFFCCF2B
:10E990008091C00080648093C000983409F4D7C18E
:10E9A0009934B8F4923409F459C1933458F490333B
:10E9B00019F1903308F4E3C59F33A1F1903409F0C5
:10E9C000DEC5BDC0953409F470C1963409F0D7C5D1
:10E9D00098C1923509F42BC2933538F49C3409F46C
:10E9E000F5C1913509F0CBC518C2963509F445C279
:10E9F000993509F0C4C567C483E792EE62E00F94CD
:10EA0000F5F110920602109207021092080210927D
:10EA1000090210920A0210920B0210920C0210923C
:10EA20000D0213C18FE792EE62E00F94F5F18FEEC5
:10EA300090EE60E00F94F5F181E291EE60E00F94CA
:10EA4000C2F187EB91EE60E00F94F5F180E391EE77
:10EA500060E00F94C2F184EE90EE60E00F94F5F167
:10EA60008FE391EE60E00F94C2F186E090E061E008
:10EA700070E00F9434F20F94DCF18DE591EE60E0DC
:10EA80000F94C2F189EC91EE60E00F94F5F18EE401
:10EA900091EE60E00F94C2F183EC91EE60E00F9490
:10EAA000F5F18CE691EE60E00F94C2F18EE10F94E7
:10EAB0000DF288E90F940DF281E00F940DF20F949E
:10EAC000DCF18BE791EE60E00F94C2F119E0E0E039
:10EAD000F0E010935700E4918E2F0F940DF20F94F5
:10EAE000DCF18AE891EE60E00F94C2F1E3E0F0E03F
:10EAF00010935700E4918E2F0F940DF20F94DCF1D8
:10EB000089E991EE60E00F94C2F1E2E0F0E0109349
:10EB10005700E4918E2F0F940DF20F94DCF188EAE8
:10EB200091EE60E00F94C2F1E1E0F0E01093570045
:10EB30001491812F0F940DF20F94DCF107CF8BE825
:10EB400092EE62E00F94F5F18BE492EE60E00F94A8
:10EB5000F5F10F94DCF100E010E019C0C8016F2D51
:10EB60000F947FFEFF2031F489E492EE60E00F9471
:10EB7000C2F10BC0F092C6008091C00086FFFCCFAE
:10EB80008091C00080648093C0000F5F1F4FC80158
:10EB900081519F41A0E0B0E0ABBFFC01F790BAE229
:10EBA000FB1621F0E2E000301E07C1F60F94DCF105
:10EBB0000F94DCF187E592EE60E00F94F5F10F948D
:10EBC000DCF1CC24DD2400E010E01EC0C8010F946D
:10EBD00077FEF82E882331F489E492EE60E00F94FA
:10EBE000C2F10BC08093C6008091C00086FFFCCFAD
:10EBF0008091C00080648093C000FE1419F00894D6
:10EC0000C11CD11C0F5F1F4FC80181519F41A0E063
:10EC1000B0E0ABBFFC01E790FAE2EF1621F022E092
:10EC20000030120799F60F94DCF10F94DCF182E6C4
:10EC300092EE60E00F94C2F1C60161E070E00F94C3
:10EC400034F20F94DCF10F94DCF110920202109276
:10EC50000302109204021092050278CE89E992EE26
:10EC600062E00F94F5F1279A2F9A16C02F9880E052
:10EC700090E0E0EDF7E03197F1F7019684369105E9
:10EC8000C1F72F9A80E090E0E0EDF7E03197F1F7DF
:10EC9000019684369105C1F78091C00087FFE6CFC9
:10ECA0008091C00087FFFCCF64C485EA92EE62E0E9
:10ECB0000F94F5F140910202509103026091040219
:10ECC0007091050281E020E10F9491F2809102029F
:10ECD00090910302A0910402B091050280509F4FD1
:10ECE000AF4FBF4F8093020290930302A0930402A0
:10ECF000B093050280509041A040B04008F426CE69
:10ED0000A4CF83EB92EE62E00F94F5F140910602FE
:10ED100050910702609108027091090280E020E1A1
:10ED20000F9491F28091060290910702A09108023F
:10ED3000B091090280509F4FAF4FBF4F80930602A2
:10ED400090930702A0930802B0930902FFCD80ECD4
:10ED500092EE62E00F94F5F183E792EE60E00F949B
:10ED6000F5F18FE792EE60E00F94F5F18BE892EE0B
:10ED700060E00F94F5F189E992EE60E00F94F5F10F
:10ED800085EA92EE60E00F94F5F183EB92EE60E09D
:10ED90000F94F5F180EC92EE60E00F94F5F187ECC2
:10EDA00092EE60E00F94F5F188ED92EE60E00F9442
:10EDB000F5F18FED92EE60E00F94F5F18AEE92EEB0
:10EDC00060E00F94F5F183E093EEBDCD87EC92EE19
:10EDD00062E00F94F5F181E40F947BF282E40F94EA
:10EDE0007BF283E40F947BF284E40F947BF285E45E
:10EDF0000F947BF286E40F947BF287E40F947BF20E
:10EE000088E40F947BF28AE40F947BF28BE40F94F6
:10EE10007BF28CE40F947BF299CD88ED92EE62E068
:10EE20000F94F5F1772473948824992409C48FED05
:10EE300092EE62E00F94F5F140910A0250910B02BC
:10EE400060910C0270910D0282E020E10F9491F22A
:10EE500080910A0290910B02A0910C02B0910D02D8
:10EE600080509F4FAF4FBF4F80930A0290930B0289
:10EE7000A0930C02B0930D0269CD8AEE92EE62E08F
:10EE80000F94F5F184EE90EE60E00F94F5F18FECC5
:10EE900091EE60E00F94F5F1662477244301CC5D98
:10EEA000DE4F19821882C452D140D401C301B695F5
:10EEB000A79597958795CA5DDE4F88839983AA8326
:10EEC000BB83C652D140CC5DDE4FA881B981C4520C
:10EED000D1401196CC5DDE4FB983A883C452D14096
:10EEE000CD0162E070E00F9434F2B0E2B093C6005E
:10EEF0008091C00086FFFCCF8091C0008064809329
:10EF0000C000EDE2E093C6008091C00086FFFCCF18
:10EF10008091C00080648093C000F0E2F093C6004E
:10EF20008091C00086FFFCCF8091C00080648093F8
:10EF3000C000CA5DDE4FE880F9800A811B81C6529D
:10EF4000D140BB27A12F902F8F2D0F940DF2CA5DBA
:10EF5000DE4F8881C652D1400F940DF2B0E2FB2EF5
:10EF6000F092C6008091C00086FFFCCF8091C00067
:10EF700080648093C0000DE30093C6008091C000C0
:10EF800086FFFCCF8091C00080648093C00010E2B7
:10EF90001093C6008091C00086FFFCCF8091C00016
:10EFA00080648093C0008BBEF3012791C65DDE4F65
:10EFB0002883CA52D140A22EBB24CC24DD2408943D
:10EFC000611C711C811C911C8BBEF3018791282E42
:10EFD0003324442455240894611C711C811C911C09
:10EFE0008BBEF3013791C55DDE4F3883CB52D140E4
:10EFF0000894611C711C811C911C8BBEF30147910C
:10F00000C45DDE4F4883CC52D140ADEFEA2EAFEF66
:10F01000FA2EAFEF0A2FAFEF1A2F6E0C7F1C801E57
:10F02000911E142D032DF22CEE24EA0CFB1C0C1D5A
:10F030001D1D0F940DF220E22093C6008091C000A8
:10F0400086FFFCCF8091C00080648093C000C65DC5
:10F05000DE4F8881CA52D1400F940DF230E23093D6
:10F06000C6008091C00086FFFCCF8091C000806404
:10F070008093C000C45DDE4F8881CC52D1400F9494
:10F080000DF240E24093C6008091C00086FFFCCFA5
:10F090008091C00080648093C000C55DDE4F888190
:10F0A000CB52D1400F940DF250E25093C6008091A4
:10F0B000C00086FFFCCF8091C00080648093C000B8
:10F0C0008FEFE8168FEFF80680E0080780E018075A
:10F0D00031F484E092EE60E00F94C2F1DFC0D80119
:10F0E000C7018070907CA070B0708050904CA040A0
:10F0F000B040D1F52FEF3FE340E050E0E222F322B1
:10F1000004231523CA5DDE4FA880B980CA80DB8046
:10F11000C652D140AE0CBF1CC01ED11EAA0CBB1CD7
:10F12000CC1CDD1C8EE092EE60E00F94C2F1BB2798
:10F13000A12F902F8F2D0F940DF28E2D0F940DF285
:10F1400030E23093C6008091C00086FFFCCF8091F2
:10F15000C00080648093C0004EE34093C60080915D
:10F16000C00086FFFCCF87C08EE09EEFA0E0B0E03D
:10F17000E822F9220A231B239CE0E91694E9F90608
:10F1800090E0090790E0190709F088C0C45DDE4FE0
:10F19000A881CC52D140EA2EFF2400E010E0102FCD
:10F1A0000F2DFE2CEE24C55DDE4FB881CB52D14031
:10F1B000EB0EF11C011D111DD601C501817090706F
:10F1C000A070B070DC0199278827E80EF91E0A1F8D
:10F1D0001B1F20EF30E040E050E0A222B322C42207
:10F1E000D52241E1AA0CBB1CCC1CDD1C4A95D1F7F1
:10F1F000EA0CFB1C0C1D1D1D81E090E0A0E0B0E0BE
:10F20000282239224A225B2235E1220C331C441C7D
:10F21000551C3A95D1F7E20CF31C041D151D57013E
:10F220006801AA0CBB1CCC1CDD1C85E192EE60E0E1
:10F230000F94C2F1C801AA27BB270F940DF2BB2778
:10F24000A12F902F8F2D0F940DF28E2D0F940DF274
:10F2500090E29093C6008091C00086FFFCCF809121
:10F26000C00080648093C000AEE3A093C60080918C
:10F27000C00086FFFCCF8091C00080648093C000F6
:10F28000C601AA27BB270F940DF2BB27AD2D9C2DDD
:10F290008B2D0F940DF28A2D0F940DF20F94DCF14B
:10F2A000CC5DDE4FE881F981C452D140F99709F471
:10F2B0004DCBF4E0EF2EF12C012D112D6E0C7F1CA7
:10F2C000801E911EF2CD83E093EE62E00F94F5F183
:10F2D0008AE192EE60E00F94C2F18091C00087FF56
:10F2E000FCCF1091C6001F751093C6008091C0001E
:10F2F00086FFFCCF8091C00080648093C0000F9493
:10F30000DCF1812F81548A3108F036C1163409F4BA
:10F3100095C0173490F4133409F44EC0143430F40B
:10F320001134F1F0123409F01DC130C0143409F465
:10F3300059C0153409F016C16BC01A3409F4C4C0A1
:10F340001B3438F4173409F48FC0183409F00AC19B
:10F35000A1C01B3409F4D2C01C3409F003C1E8C0B9
:10F360008FEF81B90DC082B1809582B980E090E0C5
:10F37000E0EDF7E03197F1F70196883C9105C1F790
:10F380008091C00087FFEFCF12B8EFC08FEF84B934
:10F390000DC085B1809585B980E090E0E0EDF7E0A3
:10F3A0003197F1F70196883C9105C1F78091C00033
:10F3B00087FFEFCF15B8D9C08FEF87B90DC088B1DF
:10F3C000809588B980E090E0E0EDF7E03197F1F7C3
:10F3D0000196883C9105C1F78091C00087FFEFCF6F
:10F3E00018B8C3C08FEF8AB90DC08BB180958BB9A7
:10F3F00080E090E0E0EDF7E03197F1F70196883C8E
:10F400009105C1F78091C00087FFEFCF1BB8ADC059
:10F410008FEF8DB90DC08EB180958EB980E090E0F0
:10F42000E0EDF7E03197F1F70196883C9105C1F7DF
:10F430008091C00087FFEFCF1EB897C08FEF80BBD1
:10F440000DC081B3809581BB80E090E0E0EDF7E0F6
:10F450003197F1F70196883C9105C1F78091C00082
:10F4600087FFEFCF11BA81C08FEF83BB0DC084B38C
:10F47000809584BB80E090E0E0EDF7E03197F1F714
:10F480000196883C9105C1F78091C00087FFEFCFBE
:10F4900014BA6BC08FEF809301010FC080910201FD
:10F4A00080958093020180E090E0E0EDF7E03197F5
:10F4B000F1F70196883C9105C1F78091C00087FF64
:10F4C000EDCF1092020151C08FEF809304010FC065
:10F4D0008091050180958093050180E090E0E0ED4A
:10F4E000F7E03197F1F70196883C9105C1F78091DB
:10F4F000C00087FFEDCF1092050137C08FEF8093DA
:10F5000007010FC08091080180958093080180E079
:10F5100090E0E0EDF7E03197F1F70196883C910536
:10F52000C1F78091C00087FFEDCF109208011DC088
:10F530008FEF80930A010FC080910B01809580931B
:10F540000B0180E090E0E0EDF7E03197F1F70196F4
:10F55000883C9105C1F78091C00087FFEDCF1092E4
:10F560000B0103C085E292EEEEC98091C00087FFD7
:10F57000FCCF8091C600EAC988E392EEE4C98CE131
:10F5800091EEE1C988249924933011F1943028F444
:10F59000913089F09230B8F408C0953061F195301F
:10F5A000F0F0963009F048C043C02B3109F042C951
:10F5B00091E06BE13FC96227C15DDE4F2883CF52E6
:10F5C000D14092E037C9B22FA0E0622793E032C960
:10F5D000822F90E0A82BB92B622794E02BC92E3004
:10F5E00009F039C3622795E0C05DDE4F19821882A9
:10F5F000C053D1401FC9E1E0F0E0EC0FFD1FC05D3A
:10F60000DE4F08811981C053D140E00FF11F2083E4
:10F610000F5F1F4FC05DDE4F19830883C053D14079
:10F6200062270A171B0709F005C9D80196E002C92D
:10F63000261709F010C303C0973009F0FBC87724E0
:10F640009981933109F412C19431C8F4963009F4C8
:10F65000D8C0973050F4923009F406C1933009F4C1
:10F660006DC0913009F059C253C0913109F477C08F
:10F67000923108F0BBC0903109F04FC2F5C098310B
:10F6800009F487C0993150F4953109F4EFC09531F0
:10F6900008F4C6C1963109F040C2C2C19A3109F4DA
:10F6A0006CC09A3108F491C09B3109F45BC09D3164
:10F6B00009F033C29D81903359F48F81882311F46E
:10F6C0009EE11CC0813011F091E018C098E916C08D
:10F6D000892F807591F0903539F4E0E0F0E089E011
:10F6E0008093570094910AC0983539F4E3E0F0E034
:10F6F00089E080935700949101C090E01A821B82A8
:10F700008D818C831D829E831F8227E030E009C299
:10F710001A8288E08B8381E48C8386E58D8382E581
:10F720008E8389E48F8383E5888780E589878FE5E9
:10F730008A8782E38B872BE030E0F3C18A818139AD
:10F7400041F0823941F0803911F48FE005C080E04A
:10F7500003C082E001C08AE01A828B8344C0772410
:10F76000739482C08D81882311F48EE12CC0813086
:10F7700011F081E028C088E926C01A82E1E0F0E0BB
:10F7800089E08093570084918B831C8224E030E0D1
:10F79000C8C18B81803589F48C81883039F4E2E0EE
:10F7A000F0E089E08093570084910DC0E0E0F0E044
:10F7B00089E080935700849106C0E3E0F0E089E09F
:10F7C0008093570084911A82DFCF8D81836C99E0FA
:10F7D000E1E0F0E0082E90935700E89507B600FCB2
:10F7E000FDCF1A821B8223E030E09BC180EC8A832C
:10F7F000CE5CDE4F188219821A821B82C253D1401E
:10F800008EC18A8190E0A0E0B0E0582F44273327D2
:10F8100022278B8190E0A0E0B0E0DC0199278827C7
:10F82000282B392B4A2B5B2B8D8190E0A0E0B0E098
:10F83000282B392B4A2B5B2B8C8190E0A0E0B0E089
:10F84000BA2FA92F982F8827282B392B4A2B5B2BCF
:10F85000220F331F441F551FC05EDE4F288339839C
:10F860004A835B83C052D1401A8259C13A81C95C34
:10F87000DE4F3883C753D140CA5CDE4F1882C6536F
:10F88000D1408B81C82EDD24CA5CDE4F488159816E
:10F89000C653D140C42AD52A933109F082C0CE5C28
:10F8A000DE4F88819981AA81BB81C253D1408050AB
:10F8B000904CA340B04030F583E0CE5CDE4FE88052
:10F8C000F9800A811B81C253D140F70100935B008C
:10F8D00080935700E89507B600FCFDCFCE5CDE4F65
:10F8E000088119812A813B81C253D14000501F4FAA
:10F8F0002F4F3F4FCE5CDE4F088319832A833B8313
:10F90000C253D140C05EDE4F488159816A817B81FC
:10F91000C052D140DE011B9631E08C9111962C91A2
:10F9200011971296C75CDE4F2883C953D140C85C3B
:10F93000DE4F1882C853D14090E0C85CDE4FE881AA
:10F94000F981C853D1408E2B9F2B0C01FA01609393
:10F950005B0030935700E89511244E5F5F4F6F4F67
:10F960007F4F0EEFE02E0FEFF02ECE0CDF1CC114F8
:10F97000D10499F685E0C05EDE4F088119812A81A5
:10F980003B81C052D140F80120935B008093570027
:10F99000E89507B600FCFDCF81E180935700E8951C
:10F9A00035C0C05EDE4F88819981AA81BB81C0527B
:10F9B000D140B695A795979587957C018601ABE0D8
:10F9C000AA2EB12CAC0EBD1E0BC0D5016D915D01F0
:10F9D000C7010F947FFE0894E11CF11C01501040F8
:10F9E0000115110591F7A60160E070E0440F551F65
:10F9F000661F771FC05EDE4FE880F9800A811B8199
:10FA0000C052D1404E0D5F1D601F711F1A82C05E33
:10FA1000DE4F488359836A837B83C052D1407FC0C5
:10FA2000FA80C55CDE4FF882CB53D140C65CDE4F16
:10FA30001882CA53D1408B81C82EDD24C65CDE4FAC
:10FA400008811981CA53D140C02AD12A1A828981DA
:10FA5000BE016D5F7F4F843121F59601C05EDE4FA0
:10FA6000E880F9800A811B81C052D1400BBFF701A9
:10FA700087919691DB018C9311969C936E5F7F4FDB
:10FA8000D801C7010296A11DB11DC05EDE4F88835B
:10FA90009983AA83BB83C052D14022503040F1F6F3
:10FAA00036C0C05EDE4F288139814A815B81C052F9
:10FAB000D1400894C108D108760100E010E0089414
:10FAC000C11CD11C0894E11CF11C011D111DE20E8A
:10FAD000F31E041F151F21BDBB27A52F942F832FB5
:10FAE00082BD2F5F3F4F4F4F5F4FF89A80B5DB01CC
:10FAF0008D93BD012E153F054007510761F7C05E8C
:10FB0000DE4F288339834A835B83C052D1409601FC
:10FB10002D5F3F4FFB01108204C080EC8A8322E0FE
:10FB200030E08BE18093C6008091C00086FFFCCF5F
:10FB30008091C00080648093C000C15DDE4FF88179
:10FB4000CF52D140F093C6008091C00086FFFCCF19
:10FB50008091C00080648093C000432F3093C60022
:10FB60008091C00086FFFCCF8091C00080648093AC
:10FB7000C000922F2093C6008091C00086FFFCCF6A
:10FB80008091C00080648093C0008EE08093C600A6
:10FB90008091C00086FFFCCF8091C000806480937C
:10FBA000C00065E1C15DDE4FE880CF52D1406E25D7
:10FBB00069276427FE01319610C090819093C6009A
:10FBC0008091C00086FFFCCF31968091C000806498
:10FBD0008093C0006927215030402115310569F715
:10FBE0006093C6008091C00086FFFCCF8091C0006A
:10FBF00080648093C00085B1805885B9772081F4F6
:10FC0000C15DDE4F0881CF52D1400F5FC15DDE4F35
:10FC10000883CF52D14090E0A0E0B0E00D941AF4F8
:10FC200027982F9880E090E020ED37E0F901319798
:10FC3000F1F7019684369105C9F700008091C00064
:10FC40008D7F8093C00081E180935700E895EE2777
:10FC5000FF270994FFCF90E00D941AF497FB092E2B
:10FC600007260AD077FD04D02ED006D000201AF443
:10FC7000709561957F4F0895F6F7909581959F4F08
:10FC80000895A1E21A2EAA1BBB1BFD010DC0AA1FDD
:10FC9000BB1FEE1FFF1FA217B307E407F50720F0F5
:10FCA000A21BB30BE40BF50B661F771F881F991F70
:10FCB0001A9469F760957095809590959B01AC01B9
:10FCC000BD01CF010895AA1BBB1B51E107C0AA1FAC
:10FCD000BB1FA617B70710F0A61BB70B881F991FED
:10FCE0005A95A9F780959095BC01CD010895F99991
:10FCF000FECF92BD81BDF89A992780B50895262F31
:10FD0000F999FECF1FBA92BD81BD20BD0FB6F89400
:0EFD1000FA9AF99A0FBE01960895F894FFCF63
:040000033000E000E9
:00000001FF
