:1000000003C1000032C1000030C100002EC1000059
:100010002CC100002AC1000028C1000026C1000038
:1000200024C1000022C1000020C100001EC1000048
:100030001CC100001AC1000018C1000016C1000058
:1000400014C1000012C1000010C100000EC1000068
:100050000CC100000AC1000008C1000028C7000050
:1000600004C1000002C1000000C10000FEC0000089
:10007000FCC00000FAC00000F8C00000F6C000009C
:10008000F4C00000F2C00000F0C00000EEC00000AC
:10009000ECC00000EAC00000E8C0000052C7000049
:1000A000E4C00000E2C00000E0C00000DEC00000CC
:1000B000DCC00000DAC00000D8C00000D6C00000DC
:1000C000D4C00000D2C00000D0C00000BAC60000FA
:1000D0008FC60000CAC00000C8C00000C6C0000033
:1000E000C4C0000000002100240027002A002D00C9
:1000F0003000330001010000040107010A01000083
:100100002200250028002B002E00310034000201BF
:100110000000050108010B0100002000230026005B
:1001200029002C002F00320000010000030106010D
:10013000090105050505070508080808020202026D
:100140000A0A080804040404010101010101010173
:100150000303030303030303040707070C0C0C0C3E
:100160000C0C0C0C02020202060606060606060627
:100170000B0B0B0B0B0B0B0B0102102020080810B4
:100180002040102040800201020108040201010207
:1001900004081020408080402010080402018004E0
:1001A000020180402010080402010804020101023B
:1001B0000408102040800102040810204080000044
:1001C0000A0B02090C0D0E080703040100000000D1
:1001D000000000000000000000000000000000001F
:1001E00000000000000000000000121110000000DC
:1001F00000000000000000000000000000000000FF
:10020000000000000D09AB0F11241FBECFEFD1E29B
:10021000DEBFCDBF00E00CBF24E0A0EEB2E001C025
:100220001D92A439B207E1F712E0A0E0B2E0EAE3E0
:10023000F8E200E00BBF02C007900D92A03EB107AC
:10024000D9F711E0C3E0D1E000E006C02197010931
:10025000802FFE010E94F311C230D10780E0080711
:10026000A9F70E945E090C940C14CACE0895089553
:10027000AF92BF92CF92DF92EF92FF920F931F93B4
:10028000CF93DF936C017B018B01040F151FEB01F2
:100290005E01AE18BF08C017D10759F06991D601A9
:1002A000ED91FC910190F081E02DC6011995892B0B
:1002B00079F7C501DF91CF911F910F91FF90EF90DA
:1002C000DF90CF90BF90AF900895FC01538D448D87
:1002D000252F30E0842F90E0821B930B541710F0F1
:1002E000CF96089501970895FC01918D828D9817FE
:1002F00061F0A28DAE0FBF2FB11D5D968C91928DD6
:100300009F5F9F73928F90E008958FEF9FEF089506
:10031000FC01918D828D981731F0828DE80FF11DCF
:10032000858D90E008958FEF9FEF0895FC01918DEA
:10033000228D892F90E0805C9F4F821B91098F73E3
:10034000992708958FEC93E0F1DF21E0892B09F4E0
:1003500020E0822F0895FC01A48DA80FB92FB11DB4
:10036000A35ABF4F2C91848D90E001968F739927EB
:10037000848FA689B7892C93A089B1898C918370C9
:1003800080648C93938D848D981306C00288F389C2
:10039000E02D80818F7D80830895EF92FF920F93EF
:1003A0001F93CF93DF93EC0181E0888F9B8D8C8D21
:1003B00098131AC0E889F989808185FF15C09FB715
:1003C000F894EE89FF896083E889F98980818370D8
:1003D000806480839FBF81E090E0DF91CF911F9187
:1003E0000F91FF90EF900895F62E0B8D10E00F5FA8
:1003F0001F4F0F731127E02E8C8D8E110BC00FB67F
:1004000007FCFACFE889F989808185FFF5CFCE0115
:10041000A2DFF2CFEB8DEC0FFD2FF11DE35AFF4F62
:10042000F0829FB7F8940B8FEA89FB898081806204
:10043000D0CFCF93DF93EC01888D8823B1F0AA89C8
:10044000BB89E889F9898C9185FD03C0808186FD8F
:100450000CC00FB607FCF7CF8C9185FFF2CF8081DF
:1004600085FFEDCFCE0177DFEACFDF91CF91089501
:1004700080E090E0892B49F080E090E0892B29F022
:100480000E94000081110E94000080E090E0892B12
:1004900049F080E090E0892B29F00E940000811152
:1004A0000E94000080E090E0892B21F04BDF811159
:1004B0000E94000080E090E0892B49F080E090E00D
:1004C000892B29F00E94000081110C9400000895EE
:1004D0008150823108F05AC0E82FF0E08827EC58AC
:1004E000FD4F8F4F0C94F3119402980286028C02F8
:1004F0009002C6029B02A102A502AB02AF02B302A8
:10050000B902BD02C602C102C702CB0280918000BF
:100510008F77809380000895809180008F7DF9CF40
:1005200080918000877FF5CF84B58F7784BD089553
:1005300084B58F7DFBCF8091B0008F778093B00022
:1005400008958091B0008F7DF9CF809190008F77D2
:10055000809390000895809190008F7DF9CF8091D5
:100560009000877FF5CF8091A0008F778093A000C7
:1005700008958091A0008F7DF9CF8091A000877FA2
:10058000F5CF809120018F7780932001089580918D
:1005900020018F7DF9CF80912001877FF5CFCF9308
:1005A000DF93282F30E0F901E254FE4F8491F901E6
:1005B000E858FE4FD491F901EE5CFE4FC491CC2374
:1005C00099F0811185DFEC2FF0E0EE0FFF1FE85E60
:1005D000FE4FA591B491EC91ED2381E090E009F4F8
:1005E00080E0DF91CF91089580E090E0FACF1F93F3
:1005F000CF93DF93282F30E0F901E254FE4F84912E
:10060000F901E858FE4FD491F901EE5CFE4FC49118
:10061000CC23A1F0162F81115BDFEC2FF0E0EE0F61
:10062000FF1FE250FF4FA591B4918FB7F894EC9162
:10063000111108C0D095DE23DC938FBFDF91CF91DD
:100640001F910895DE2BF8CFCF93DF9390E0FC014C
:10065000E858FE4F24918E5C9E4FFC0184918823C4
:10066000D1F090E0880F991FFC01EC51FF4FA5914C
:10067000B491FC01E250FF4FC591D491623071F406
:100680009FB7F8943C91822F809583238C93E881C7
:100690002E2B28839FBFDF91CF9108958FB7F894B9
:1006A000EC912E2B2C938FBFF6CF90917B00977FF0
:1006B00090937B008653806480937C0080917A00C5
:1006C000806480937A0080917A0086FDFCCF8091CF
:1006D00078009091790008953FB7F89480918A034B
:1006E00090918B03A0918C03B0918D0326B5A89BAC
:1006F00005C02F3F19F00196A11DB11D3FBFBA2FB4
:10070000A92F982F8827BC01CD01620F711D811D73
:10071000911D42E0660F771F881F991F4A95D1F7F8
:1007200008958F929F92AF92BF92CF92DF92EF92F5
:10073000FF926B017C01D0DF4B015C01C114D1043D
:10074000E104F104B1F0C8DF681979098A099B094D
:10075000683E73408105910588F321E0C21AD108F3
:10076000E108F10888EE880E83E0981EA11CB11CF8
:10077000E5CFFF90EF90DF90CF90BF90AF909F902C
:100780008F90089585ED8093BC008091BC0084FD1E
:10079000FCCF10929403089520914203260F332733
:1007A000331F21323105ECF420919403FC0190E0D9
:1007B00080E0243069F082E00895A0914203219105
:1007C000AC014E5D5C4FA40FB52FB11D2C9301966B
:1007D000861798F380914203680F6093420380E08C
:1007E000089581E008950895E0919803809197031A
:1007F000E81730F4F0E0EE5FFC4F808190E0089560
:100800008FEF9FEF089590919803809197032FEFBA
:100810003FEF981748F4E92FF0E0EE5FFC4F20819E
:1008200030E09F5F90939803C901089580919703EA
:1008300090919803891B990B0895CF92DF92EF92C4
:10084000FF920F931F93CF93DF937C01CB018A011B
:1008500020910103222389F0EB016B01C40ED51E08
:10086000CC15DD0561F06991D701ED91FC91019006
:10087000F081E02DC7011995F3CF642F8DDFC801FA
:10088000DF91CF911F910F91FF90EF90DF90CF906C
:100890000895CF93DF931F92CDB7DEB76983209180
:1008A00001032223F9F020919503203258F021E032
:1008B00030E0FC013383228390E080E00F90DF91F1
:1008C000CF91089580919603E82FF0E0EF51FD4F0E
:1008D000998190838F5F809396038093950381E045
:1008E00090E0ECCF61E0CE01019656DFF8CFCF93D8
:1008F000FC01C48121E020930103C093E002109227
:100900009603109295038385682B8CE694E0C1DFF3
:1009100090919503913208F03FC08091940381112A
:10092000FCCF82E08093940381E0809393038FEF68
:10093000809365031092870390938603A1EEB2E043
:10094000E6E6F3E080E098132FC0109288038091D0
:100950008803CC0FC82BC093880380919203813009
:1009600039F510929203809188038093BB008091A7
:10097000BC0083FDF8CF85EC8093BC00809194038C
:100980008230E1F3809165038F3F31F08091650300
:10099000803211F0809165031092960310929503B6
:1009A00010920103CF9108952D9121938F5FCBCFAA
:1009B00085EEE2CF089590E080E008958F929F92B7
:1009C000AF92BF92CF92DF92EF92FF920F931F935D
:1009D000CF93DF934B015A01E9018230910519F061
:1009E000682F8FE204DE82E08816910419F0682DEA
:1009F0008DE2FDDD82E0A816B10419F06A2D8BE2CC
:100A0000F6DDC230D10519F06C2F89E2F0DD02303D
:100A1000110519F0602F87E2EADD82E0E816F104A3
:100A200019F06E2D85E2E3DD82E0C816D10479F07D
:100A30006C2D83E2DF91CF911F910F91FF90EF908A
:100A4000DF90CF90BF90AF909F908F90D0CDDF91EF
:100A5000CF911F910F91FF90EF90DF90CF90BF90BB
:100A6000AF909F908F9008950F931F93CF938C0119
:100A7000C62F3DDF6C2F6460C80139DF6C2F6B7FA0
:100A8000C80135DF83EC90E00197F1F7CF911F911A
:100A90000F9108950F931F93CF93DF938C01D62F5F
:100AA000C42F607F642BE0DF80E1D89FB001112468
:100AB0006C2BC801DF91CF911F910F91D5CF40E0F2
:100AC00061E084E894E0E6DF8BE39FE10197F1F7D2
:100AD0000895CF93DF9300D000D01F921F92CDB71F
:100AE000DEB798E0EFE0F2E0DE01119601900D92A2
:100AF0009A95E1F790918C04961710F46FEF690FB7
:100B0000262F30E0220F331F41E050E04C0F5D1FD5
:100B1000240F351FF9016081680F606840E084E8A8
:100B200094E028960FB6F894DEBF0FBECDBFDF91DC
:100B3000CF91B0CF41E0AEDF81E090E00895FB01BE
:100B400001900020E9F73197AF01461B570BDC01FC
:100B5000ED91FC910280F381E02D19948F929F9288
:100B6000AF92BF92EF92FF920F931F93CF93DF93B9
:100B7000CDB7DEB7A1970FB6F894DEBF0FBECDBFDD
:100B80007C01FA01CB0119A2223008F42AE08E017F
:100B90000F5D1F4F822E912CB12CA12CBF01A501FE
:100BA00094010E94D111F901CA016A3004F5605D17
:100BB000D8016E938D01232B242B252B79F790E000
:100BC00080E0109719F0BD01C701B9DFA1960FB6FB
:100BD000F894DEBF0FBECDBFDF91CF911F910F9173
:100BE000FF90EF90BF90AF909F908F900895695CB9
:100BF000DFCF2F923F924F925F926F927F928F92B0
:100C00009F92AF92BF92CF92DF92EF92FF921F938B
:100C1000CF93DF93EC016A017B01722EAB01960149
:100C2000CB01B6010E94CD1167E572E0811126C0AB
:100C300046015701E894B7F82FEF3FEF4FE75FE722
:100C4000C501B4010E94CD1181110CC02FEF3FEFFF
:100C50004FE75FE7C501B4010E94B70F6BE572E093
:100C6000181664F02FEF3FEF4FE75FE4C701B601BE
:100C70000E94C9111816ACF46FE572E0CE01DF9145
:100C8000CF911F91FF90EF90DF90CF90BF90AF90EA
:100C90009F908F907F906F905F904F903F902F909C
:100CA0004ECF2FEF3FEF4FE75FECC701B6010E9439
:100CB000B70F87FDE1CF20E030E0A901C701B60101
:100CC0000E94B70F312C212C87FF0DC0E881F981DC
:100CD0000190F081E02D6DE2CE0119951C01F7FA2B
:100CE000F094F7F8F09410E060E070E080E09FE3AB
:100CF000711641F020E030E040E251E40E943511ED
:100D00001F5FF6CFA70196010E94D1102B013C0175
:100D10000E949D114B015C012AE0BC01A401CE019F
:100D20001DDF7C01E20CF31C1123D9F1C501B401D4
:100D30000E94BB0F9B01AC01C301B2010E94D01005
:100D40004B015C01E881F9810190F081E02D6EE2B8
:100D5000CE011995E80EF91E115018F120E030E08F
:100D600040E251E4C501B4010E941C102B013C017A
:100D70000E949D114B01B12CA12C2AE0B501A401C8
:100D8000CE01ECDEE80EF91EC501B4010E94BB0FD6
:100D90009B01AC01C301B2010E94D0104B015C0168
:100DA000DBCFC701DF91CF911F91FF90EF90DF90D4
:100DB000CF90BF90AF909F908F907F906F905F90FB
:100DC0004F903F902F900895CF93DF93AB01BC01DC
:100DD00022E08FEC93E00DDFEC0163E672E08FEC34
:100DE00093E0ADDE8C0F9D1FDF91CF910895A7CECC
:100DF0001F920F920FB60F9211240BB60F922F93E2
:100E00003F934F935F936F937F938F939F93AF9392
:100E1000BF93EF93FF938FEC93E09DDAFF91EF91F7
:100E2000BF91AF919F918F917F916F915F914F9102
:100E30003F912F910F900BBE0F900FBE0F901F9000
:100E400018951F920F920FB60F9211240BB60F92A6
:100E50002F938F939F93EF93FF93E091DF03F09194
:100E6000E0038081E091E503F091E60382FD1DC07F
:100E700090818091E8038F5F8F732091E90382173F
:100E800041F0E091E803F0E0E153FC4F958F80934F
:100E9000E803FF91EF919F918F912F910F900BBEDF
:100EA0000F900FBE0F901F9018958081F2CF1F9268
:100EB0000F920FB60F9211242F933F938F939F930E
:100EC000AF93BF938091990390919A03A0919B0354
:100ED000B0919C033091890323E0230F2D3758F5FF
:100EE0000196A11DB11D20938903809399039093CE
:100EF0009A03A0939B03B0939C0380918A039091E3
:100F00008B03A0918C03B0918D030196A11DB11D9F
:100F100080938A0390938B03A0938C03B0938D03EB
:100F2000BF91AF919F918F913F912F910F900FBEE5
:100F30000F901F90189526E8230F0296A11DB11D52
:100F4000D2CF1F920F920FB60F9211240BB60F92B1
:100F50002F933F934F935F936F937F938F939F93C1
:100F6000AF93BF93EF93FF938091B900887F803652
:100F700009F44CC008F03FC0883209F4A8C028F535
:100F8000803109F49CC0C8F4882309F4FAC0883081
:100F900009F495C0FF91EF91BF91AF919F918F910F
:100FA0007F916F915F914F913F912F910F900BBE69
:100FB0000F900FBE0F901F901895883109F487C0CD
:100FC000803241F78093650314C0803409F49CC0DB
:100FD00040F48033B9F38833E9F68093650385ECF8
:100FE000AFC0803509F484C0883509F495C08834D1
:100FF00089F6C8DBCFCF883909F48CC038F588373B
:1010000029F050F4883611F0803721F683E0809380
:1010100094031092640357C0883809F47BC0803968
:1010200019F0803809F0B6CF80916403803208F05F
:1010300071C0E091640381E08E0F8093640380911E
:10104000BB00F0E0EC5BFC4F80833DC0803B39F09F
:10105000E0F4803A09F479C0883A09F09BCF84E043
:10106000809394031092430310924203E091900303
:10107000F091910319958091420381110FC081E095
:10108000809342031092220309C0803C09F4A7CF49
:10109000883C09F4A4CF883B09F07CCFE09143035E
:1010A00081E08E0F80934303F0E0EE5DFC4F808182
:1010B0008093BB00909143038091420329C08091AB
:1010C00088038093BB0085EC8093BC0063CF909134
:1010D000870380918603981758F5E091870381E094
:1010E0008E0F80938703F0E0EA59FC4F8081E9CFAF
:1010F000E091870381E08E0F809387038091BB008E
:10110000F0E0EA59FC4F8083909187038091860339
:101110009817C8F285E8D8CFE091870381E08E0F59
:10112000809387038091BB00F0E0EA59FC4F8083F5
:101130008091930381115DCF81E08093920384EAD3
:101140008093BC001092940325CF85EC8093BC0063
:101150001092940380916403803230F4E091640330
:10116000F0E0EC5BFC4F10826091640370E0E09172
:101170008E03F0918F0384E493E019951092640339
:1011800009CF1092650335CFEF92FF920F931F9313
:10119000CF93DF93EC017B01198218821B821A82A4
:1011A0001D821C82FB0101900020E9F731978F011D
:1011B000061B170BB8016F5F7F4F90E080E00E9425
:1011C00020130097B9F0998388831B830A832C81AD
:1011D0003D81232B11F4FC0110821D830C83B70188
:1011E00088819981DF91CF911F910F91FF90EF90AE
:1011F0000C94051488819981009711F00E94971230
:10120000198218821D821C821B821A82DF91CF9163
:101210001F910F91FF90EF900895EFECF3E0138290
:10122000128288EE93E0A0E0B0E084839583A683E9
:10123000B7832BE232E03183208325ED30E0358720
:10124000248724ED30E03787268720ED30E0318B8E
:10125000208B21ED30E0338B228B22ED30E0358B7B
:10126000248B26ED30E0378B268B118E128E138E59
:10127000148EECE6F4E01382128284839583A683B5
:10128000B7838DE392E091838083E4E8F4E01382F6
:1012900012828FE492E09183808387E2848384E1E9
:1012A000818784E08287138666E672E088E794E0AF
:1012B0006BDF62E772E08EE794E066CFCF93DF9357
:1012C000CDB7DEB760970FB6F894DEBF0FBECDBFC7
:1012D000789484B5826084BD84B5816084BD85B511
:1012E000826085BD85B5816085BD80916E0081601D
:1012F00080936E00109281008091810082608093C3
:1013000081008091810081608093810080918000C4
:101310008160809380008091B10084608093B100EF
:101320008091B00081608093B000809191008260D4
:1013300080939100809191008160809391008091D1
:1013400090008160809390008091A10082608093E2
:10135000A1008091A10081608093A1008091A000F4
:1013600081608093A000809121018260809321019F
:101370008091210181608093210180912001816011
:101380008093200180917A00846080937A0080911C
:101390007A00826080937A0080917A0081608093E5
:1013A0007A0080917A00806880937A001092C10060
:1013B000E091DF03F091E00382E08083E091DB03C2
:1013C000F091DC031082E091DD03F091DE038FECFD
:1013D00080831092E703E091E303F091E40386E059
:1013E0008083E091E103F091E2038081806180835A
:1013F000E091E103F091E203808188608083E091D5
:10140000E103F091E203808180688083E091E10351
:10141000F091E20380818F7D808362E084E014D9C3
:1014200062E085E011D962E086E00ED962E087E0F3
:101430000BD962E088E008D962E089E005D961E073
:1014400082E102D961E083E1FFD861E087E1FCD865
:1014500061E089E1F9D861E08BE1F6D861E08DE1E6
:10146000F3D861E08FE1F0D861E081E2EDD861E08E
:101470008FE2EAD861E08DE2E7D861E08BE2E4D860
:1014800061E089E2E1D861E087E2DED861E085E2EF
:10149000DBD861E083E2D8D861E085E4D5D861E0AB
:1014A00084E4D2D861E085E3CFD861E083E3CCD88F
:1014B00061E081E3C9D861E08FE3C6D861E080E4F0
:1014C000C3D861E081E4C0D861E082E4BDD861E0C6
:1014D00083E4BAD81092980310929703109296035F
:1014E000109295031092940381E0809393031092DD
:1014F000920361E084E17BD861E085E178D8809156
:10150000B9008E7F8093B9008091B9008D7F809360
:10151000B90088E48093B80085E48093BC0086E33A
:1015200091E0909391038093900387E391E09093EF
:101530008F0380938E031092890480918E048230F1
:1015400018F098E09093890480938C0462E370E033
:1015500080E090E0E6D860918F0484E894E0C7D9F9
:1015600068EE73E080E090E0DCD860E384E894E02B
:101570007BDA0BE416E4C8010197F1F760E384E835
:1015800094E072DAC8010197F1F760E384E894E02F
:101590006BDA83E592E00197F1F760E284E894E08A
:1015A00063DA60918904606240E084E894E072DA72
:1015B00084E080938A0440E06CE084E894E06ADA96
:1015C0007EDA82E080938B0440E066E084E894E079
:1015D00061DA40E062E084E894E05CDA8BE39FE16A
:1015E0000197F1F788E080938F0460E084E894E04D
:1015F0007ED960E080E06DDA6AE772E084E894E02A
:10160000F6DB61E080E065DA66E872E084E894E0A9
:10161000EEDB62E080E05DDA62E972E084E894E0AB
:10162000E6DB63E080E055DA68E972E084E894E0A4
:10163000DEDB68EE73E080E090E073D840DA8BE3A5
:1016400034D8BC01990F880B990B97D42FE632E15F
:1016500043E05BE3F1D420E030EC4FE754E405D6FF
:101660006093CB037093CC038093CD039093CE0310
:101670008AE31BD8BC01990F880B990B7ED420E01C
:1016800030E040E651E4D8D420E030EC4FE754E4B9
:10169000ECD56093C7037093C8038093C9039093FC
:1016A000CA038CE302D8BC01990F880B990B65D44F
:1016B00020E030E040EF51E4BFD420E030EC4FE7D1
:1016C00054E4D3D520E030E048EC52E4CED52DEC04
:1016D0003CEC4CE85FE365D56093C3037093C403AF
:1016E0008093C5039093C6038DE30E945503BC010C
:1016F000990F880B990B41D420E030E040EF51E482
:101700009BD420E030EC4FE754E4AFD520E030E04C
:1017100048EC52E4AAD52DEC3CEC4CE85FE341D513
:101720006093BF037093C0038093C1039093C2037F
:1017300087E30E945503BC01990F880B990B1DD4B8
:1017400020E030EC46E454E477D420E030EC4FE77E
:1017500054E48BD56093BB037093BC038093BD03AB
:101760009093BE0386E30E945503BC01990F880B3A
:10177000990B03D420E030EC4EE854E45DD420E033
:1017800030EC4FE754E471D56093B7037093B8031E
:101790008093B9039093BA0389E30E945503BC0177
:1017A000990F880B990BE9D320E030E048EC52E424
:1017B00043D420E030EC4FE754E457D56093B303B3
:1017C0007093B4038093B5039093B60388E30E94AB
:1017D0005503BC01990F880B990BCFD320E030E063
:1017E00048EC52E429D420E030EC4FE754E43DD5F6
:1017F0006093AF037093B0038093B1039093B203EF
:1018000062EA72E08FEC93E0F2DA6091BB037091D0
:10181000BC038091BD039091BE03D6DA67EA72E003
:101820008FEC93E0E4DA6091B7037091B803809194
:10183000B9039091BA03C8DA6CEA72E08FEC93E0D6
:10184000D6DA6091CB037091CC038091CD03909157
:10185000CE03BADA65EB72E08FEC93E0C8DA609100
:10186000C7037091C8038091C9039091CA03ACDA91
:1018700069EB72E08FEC93E0BADA6091BF0370918C
:10188000C0038091C1039091C2039EDA6FEB72E0B6
:101890008FEC93E0ACDA6091C3037091C403809144
:1018A000C5039091C60390DA84E00E94CF02892B91
:1018B00009F076C0CC24C394D12CEE24E394F12C0F
:1018C00001E010E021E030E041E050E061E070E054
:1018D00081E090E073D866E970E080E090E00E94DB
:1018E0009103D12CC12CF12CE12C10E000E030E070
:1018F00020E050E040E070E060E090E080E05ED802
:101900008091C3039091C403A091C503B091C60315
:101910008093AB039093AC03A093AD03B093AE035D
:101920008091B3039091B403A091B503B091B60335
:101930008093A7039093A803A093A903B093AA034D
:101940008091AF039091B003A091B103B091B20325
:101950008093A3039093A403A093A503B093A6033D
:101960008091B7039091B803A091B903B091BA03E5
:101970008093050290930602A0930702B093080299
:101980008091BB039091BC03A091BD03B091BE03B5
:101990008093010290930202A0930302B093040289
:1019A00085E00E94CF02892B39F08091A1039091AC
:1019B000A203089709F05FC066E970E080E090E05C
:1019C0000E949103D12CC12CF12CE12C10E000E0FD
:1019D00030E020E050E040E070E060E090E080E047
:1019E0000E94DE0460E085E40E94F70260E085E387
:1019F0000E94F70260E081E30E94F70280E1E7E1E4
:101A0000F2E0DE01119601900D928A95E1F70FE068
:101A100010E07601EE0CFF1CEE0CFF1C81E090E064
:101A20008C0F9D1FE80EF91EF70160818BE10E946B
:101A3000F702F70161818DE10E94F702F7016281EF
:101A40008FE10E94F702F701638181E20E94F702B1
:101A500068EC70E080E090E00E949103FFEFCF1A05
:101A6000DF0A0150110909F044C26CEB72E080E01A
:101A700090E00E94910386E00E94CF02892B91F5AD
:101A800066E970E080E090E00E949103B2E0CB2E26
:101A9000D12CEE24E394F12C02E010E022E030E0BF
:101AA00042E050E062E070E082E090E00E94DE04FC
:101AB00061E081E30E94F7026CEB72E080E090E06D
:101AC0000E949103F12CE12C22E030E042E050E052
:101AD00062E070E082E090E00E94DE0460E081E37A
:101AE0000E94F70287E00E94CF02892BC1F566E9C8
:101AF00070E080E090E00E949103F2E0CF2ED12CC4
:101B0000A2E0EA2EF12C01E010E030E020E050E00D
:101B100040E062E070E082E090E00E94DE0461E07C
:101B200081E30E94F70268E775E080E090E00E94A0
:101B3000910310E000E021E030E050E040E062E09E
:101B400070E082E090E00E94DE0460E081E30E94A9
:101B5000F7026CEB72E080E090E00E94910388E075
:101B60000E94CF02892BA1F572E0C72ED12CE2E0B2
:101B7000EE2EF12C02E010E022E030E041E050E0F7
:101B800062E070E082E090E00E94DE0466E970E0CE
:101B900080E090E00E9491036CEB72E080E090E0C6
:101BA0000E949103D12CC12CF12CE12C10E000E01B
:101BB00030E020E050E040E070E060E090E080E065
:101BC0000E94DE046CEB72E080E090E00E949103E2
:101BD00089E00E94CF02892B09F07BC066E970E0A2
:101BE00080E090E00E94910362E0C62ED12CF12C9F
:101BF000E12C10E000E021E030E042E050E062E063
:101C000070E082E090E00E94DE0480E1E7E1F2E033
:101C1000DE01119601900D928A95E1F7D12CC12C2D
:101C20000AE010E07601EE0CFF1CEE0CFF1C81E0D8
:101C300090E08C0F9D1FE80EF91EF701608182E194
:101C40000E94F702F701618183E10E94F702F70128
:101C5000628187E10E94F702F701638189E10E94B6
:101C6000F70268EC70E080E090E00E949103FFEFE3
:101C7000CF1ADF0A0150110909F043C142E0C42E16
:101C8000D12CF12CE12C01E010E030E020E042E02A
:101C900050E062E070E082E090E00E94DE0461E0EB
:101CA00085E40E94F7026CEB72E080E090E00E9415
:101CB000910360E081E30E94F70210E000E021E080
:101CC00030E042E050E062E070E082E090E00E94AC
:101CD000DE040E945F0560E080E00E94690562EA20
:101CE00072E084E894E083D84091010250910202AE
:101CF000609103027091040220E084E894E00E9465
:101D0000F90567EA72E084E894E071D84091050231
:101D100050910602609107027091080220E084E869
:101D200094E00E94F90561E080E00E94690565EC9D
:101D300072E084E894E05BD84091A7035091A80337
:101D40006091A9037091AA0320E084E894E00E94C6
:101D5000F9056BEC72E084E894E049D84091A30364
:101D60005091A4036091A5037091A60320E084E83C
:101D700094E00E94F90562E08CEF0E94690560ED35
:101D800072E084E894E033D84091AB035091AC0307
:101D90006091AD037091AE0322E084E894E00E946C
:101DA000F90565ED72E084E894E021D84091AB0339
:101DB0005091AC036091AD037091AE0322E084E8D2
:101DC00094E00E94F90563E08CEF0E9469056AEDDA
:101DD00072E084E894E00BD8C090A103D090A203F5
:101DE0000D2C000CEE08FF082AE0B701A601F7FE53
:101DF0000EC041E06DE284E894E00E944A05442769
:101E00005527BA014C195D096E097F092AE084E85B
:101E100094E00E94AE0564E670E080E090E00E94ED
:101E200091032FB7F8948091990390919A03A09110
:101E30009B03B0919C032FBF40919D0350919E0343
:101E400060919F037091A003841B950BA60BB70BA9
:101E50008C3A9D40A105B10508F448C0809100026C
:101E600091E08927809300028091A1039091A203C1
:101E700001968831910509F44CC09093A203809398
:101E8000A1032FB7F8948091990390919A03A091A0
:101E90009B03B0919C032FBF80939D0390939E035F
:101EA000A0939F03B093A003809100028823B1F117
:101EB00060E085E40E94F70261E085E30E94F7029A
:101EC00060E081E30E94F70222E0C22ED12C32E0D2
:101ED000E32EF12C02E010E030E020E042E050E0A0
:101EE00070E060E081E090E00E94DE040E94380231
:101EF000A6CB24E0C216D10409F08BCDD12CC12C85
:101F000088CD24E0C216D10409F08CCED12CC12C8E
:101F100089CE1092A2031092A103B3CF61E085E4B1
:101F20000E94F70260E085E30E94F70261E081E32E
:101F30000E94F70282E0C82ED12C92E0E92EF12C0B
:101F400002E010E021E030E042E050E061E070E0CB
:101F500090E080E0C9CFCF93DF93C8E7D4E08E81D3
:101F60009F81E5D288819981DF91CF91E0C240D0F5
:101F700008F481E00895E89409C097FB3EF4909539
:101F80008095709561957F4F8F4F9F4F9923A9F052
:101F9000F92F96E9BB279395F695879577956795E1
:101FA000B795F111F8CFFAF4BB0F11F460FF1BC025
:101FB0006F5F7F4F8F4F9F4F16C0882311F096E9B8
:101FC00011C0772321F09EE8872F762F05C0662366
:101FD00071F096E8862F70E060E02AF09A95660F1F
:101FE000771F881FDAF7880F9695879597F90895D8
:101FF000990F0008550FAA0BE0E8FEEF161617061A
:10200000E807F907C0F012161306E407F50798F081
:10201000621B730B840B950B39F40A2661F0232B9A
:10202000242B252B21F408950A2609F4A140A69516
:102030008FEF811D811D08950BD078C069D028F0E5
:102040006ED018F0952309F05AC05FC01124A2C0C9
:102050007ED0A0F3959FD1F3950F50E0551F629F5E
:10206000F001729FBB27F00DB11D639FAA27F00DF1
:10207000B11DAA1F649F6627B00DA11D661F829F18
:102080002227B00DA11D621F739FB00DA11D621FFD
:10209000839FA00D611D221F749F3327A00D611D1A
:1020A000231F849F600D211D822F762F6A2F1124FC
:1020B0009F5750408AF0E1F088234AF0EE0FFF1F4F
:1020C000BB1F661F771F881F91505040A9F79E3F86
:1020D000510570F014C05EC05F3FECF3983EDCF336
:1020E000869577956795B795F795E7959F5FC1F7C3
:1020F000FE2B880F911D9695879597F9089597F96E
:102100009F6780E870E060E008959FEF80EC08959D
:1021100000240A94161617061806090608950024C6
:102120000A9412161306140605060895092E039440
:10213000000C11F4882352F0BB0F40F4BF2B11F4B4
:1021400060FF04C06F5F7F4F8F4F9F4F089557FD13
:102150009058440F551F59F05F3F71F04795880F15
:1021600097FB991F61F09F3F79F0879508951216AC
:1021700013061406551FF2CF4695F1DF08C0161658
:1021800017061806991FF1CF869571056105089409
:102190000895E894BB2766277727CB0197F9089520
:1021A0005058BB27AA270ED0C1CFB2DF30F0B7DF1F
:1021B00020F031F49F3F11F41EF4A7CF0EF4E09508
:1021C000E7FB9DCFE92FC3DF80F3BA1762077307E0
:1021D0008407950718F071F49EF5DBCF0EF4E095B7
:1021E0000B2EBA2FA02D0B01B90190010C01CA01D1
:1021F000A0011124FF27591B99F0593F50F4503E7C
:1022000068F11A16F040A22F232F342F4427585F6D
:10221000F3CF469537952795A795F0405395C9F785
:102220007EF41F16BA0B620B730B840BBAF091503D
:10223000A1F0FF0FBB1F661F771F881FC2F70EC0DC
:10224000BA0F621F731F841F48F4879577956795AF
:10225000B795F7959E3F08F0B3CF9395880F08F098
:102260009927EE0F9795879508950CD05FCF57DF8C
:1022700040F04EDF30F021F45F3F19F040CF5111B4
:1022800089CF43CF64DF98F39923C9F35523B1F382
:10229000951B550BBB27AA2762177307840738F0D5
:1022A0009F5F5F4F220F331F441FAA1FA9F333D034
:1022B0000E2E3AF0E0E830D091505040E695001CE8
:1022C000CAF729D0FE2F27D0660F771F881FBB1FA4
:1022D000261737074807AB07B0E809F0BB0B802D7E
:1022E000BF01FF2793585F4F2AF09E3F510568F0CA
:1022F00006CF50CF5F3FECF3983EDCF386957795A1
:102300006795B795F7959F5FC9F7880F911D9695CB
:10231000879597F90895E1E0660F771F881FBB1F27
:10232000621773078407BA0720F0621B730B840BD4
:10233000BA0BEE1F88F7E095089511DF88F09F57DC
:1023400090F0B92F9927B751A0F0D1F0660F771F01
:10235000881F991F1AF0BA95C9F712C0B13081F0E1
:1023600018DFB1E0089515CF672F782F8827B85F61
:1023700039F0B93FCCF3869577956795B395D9F742
:102380003EF490958095709561957F4F8F4F9F4F4C
:1023900008952EDE08F48FEF08952ADE880B990B3E
:1023A0000895A1E21A2EAA1BBB1BFD010DC0AA1F96
:1023B000BB1FEE1FFF1FA217B307E407F50720F0AE
:1023C000A21BB30BE40BF50B661F771F881F991F29
:1023D0001A9469F760957095809590959B01AC0172
:1023E000BD01CF010895EE0FFF1F881F8BBF07901F
:1023F000F691E02D19940F931F93CF93DF938230C2
:10240000910510F482E090E0E0919204F091930441
:1024100030E020E0B0E0A0E0309799F421153105DC
:1024200009F44AC0281B390B24303105D8F58A81BC
:102430009B816115710589F1FB0193838283FE0104
:1024400011C0408151810281138148175907E0F082
:102450004817590799F4109761F012960C93129748
:1024600013961C933296CF01DF91CF911F910F915C
:1024700008950093920410939304F4CF211531052D
:1024800051F04217530738F0A901DB019A01BD0151
:10249000DF01F801C1CFEF01F9CF9093930480934E
:1024A0009204CDCFFE01E20FF31F8193919322504E
:1024B000310939832883D7CF20919004309191043A
:1024C000232B41F420910B0230910C0230939104A4
:1024D000209390042091090230910A0221153105C0
:1024E00041F42DB73EB740910D0250910E02241BCE
:1024F000350BE0919004F0919104E217F307A0F4FA
:102500002E1B3F0B2817390778F0AC014E5F5F4F49
:102510002417350748F04E0F5F1F509391044093E6
:102520009004819391939FCFF0E0E0E09CCFCF9314
:10253000DF930097E9F0FC01329713821282A09199
:102540009204B0919304ED0130E020E01097A1F4E3
:1025500020813181820F931F20919004309191044A
:102560002817390709F061C0F0939104E0939004B3
:10257000DF91CF910895EA01CE17DF07E8F54A8190
:102580005B819E0141155105B1F7E901FB83EA83A7
:1025900049915991C40FD51FEC17FD0761F4808153
:1025A00091810296840F951FE90199838883828126
:1025B00093819B838A83F0E0E0E012968D919C9159
:1025C00013970097B9F52D913C911197CD01029683
:1025D000820F931F2091900430919104281739079E
:1025E00039F6309751F51092930410929204B093FB
:1025F0009104A0939004BCCFD383C28340815181C6
:10260000840F951FC817D90761F44E5F5F4F88810B
:102610009981480F591F518340838A819B819383FD
:1026200082832115310509F0B0CFF0939304E09334
:1026300092049ECFFD01DC01C0CF13821282D7CF5E
:102640004F925F926F927F928F929F92AF92BF92C2
:10265000CF92DF92EF92FF920F931F93CF93DF936E
:102660008C01009791F4CB01DF91CF911F910F91D5
:10267000FF90EF90DF90CF90BF90AF909F908F90A2
:102680007F906F905F904F90B6CEFC01E60FF71FE2
:102690009C0122503109E217F30708F4AAC0D901BE
:1026A000CD91DC911197C617D70718F1C530D10528
:1026B00070F0CE0104978617970748F0C61BD70B1A
:1026C0002297C193D1936D937C93CF0130DFC801E2
:1026D000DF91CF911F910F91FF90EF90DF90CF90FE
:1026E000BF90AF909F908F907F906F905F904F9032
:1026F00008955B01AC1ABD0A4C018C0E9D1EA09181
:102700009204B0919304512C412CF12CE12C1097A0
:1027100031F580919004909191048815990509F004
:102720005CC04616570608F058C080910902909187
:102730000A02009741F48DB79EB740910D02509167
:102740000E02841B950BE817F90708F052C0F093AE
:102750009104E0939004F90171836083B8CF8D9167
:102760009C91119712966C90129713967C901397E8
:10277000A815B90559F56C0142E0C40ED11CCA1464
:10278000DB0420F1AC014A195B09DA0112961597B6
:1027900080F06282738251834083D9016D937C9370
:1027A000E114F10471F0D7011396FC93EE931297A4
:1027B0008ECF22968C0F9D1FF90191838083F301A8
:1027C000EFCFF0939304E093920481CF481659061B
:1027D00008F42C017D01D3019ACFCB010CDE7C01E2
:1027E000009739F0AE01B80107D0C801A0DE87011B
:1027F0006ECF10E000E06BCFFB01DC0102C0019066
:102800000D9241505040D8F70895FB01DC01019032
:102810000D920020E1F7089511E0C3E0D1E000E05F
:1028200005C0802FFE01DFDD2196011DC430D107D8
:0A28300080E00807B1F7F894FFCF2D
:10283A0001C3F54441C3F5444100009404800000FB
:10284A0000400014005400010000010100010000D2
:10285A000101000001000100000000CD01380165FE
:10286A000119029601740188010000000049041D43
:10287A0004DB04F30316040304F403000000009AC3
:10288A00053801DB04DA046E616E00696E66006F5A
:10289A007666000D0A00416C696D656E74616E643E
:1028AA006F004465736167756500202020204163CD
:1028BA00756172696F00202020202053616D626962
:1028CA006C00202053616E0043726973746F6261F9
:1028DA006C004C4D543A004C52543A00416D6D6FA5
:1028EA006E69613A0050483A00434552543A0043EF
:1028FA00454D543A00464F4F443A0053414C3A0032
:10290A004345523A0043454D3A00486F72613A00D6
:00000001FF
